:100000000209B002096C00000000000200000000BC
:10001000000000020A36000000000002000000009C
:1000200000000002000000000000000200000000CC
:1000300000000002000000000000000200000000BC
:1000400000000002000000000000000200000000AC
:10005000000000020000000000000002000000009C
:10006000000000020000000000000002000000008C
:0600700000000002000088
:070076007F03DFFE00002202
:10007D00752301752400752580752600E525452617
:10008D00604E1176117611761176C2971176117632
:10009D00E5225525F8E45526F9E8496004D2968005
:1000AD0002C29611761176D297C3E50892E0F50853
:1000BD00209709E50830E002800280F47801E526FA
:1000CD00088007C313C52513C525D8F7F52680ACC1
:1000DD0075230075240011761176C297117611766D
:1000ED00D2961176117611761176D297C3E50892D4
:1000FD00E0F508209709E50830E002800280F475EC
:10010D0023007524001176117630960643230143A2
:10011D0024001176117611761176117611761176FD
:10012D00117611761176117611761176117611768A
:0B013D001176C297C296A823A92422C5
:10014800D29611761176D29711761176C2961176DB
:050158001176C29722A0
:10015D00C29611761176D297C3E50892E0F5082084
:10016D009709E50830E002800280F41176117611CE
:10017D007611761176117611761176D29611761159
:02018D007622D8
:10018F003148851F22117D852022117D8521221165
:04019F007D315D222F
:0C01A300751F7C851E20851D21318F22D8
:0C01AF00751FC0851B20851C21318F228C
:1001BB00C3E51B9420400FD3E51B947F5008851B90
:0701CB001D751E4031A32247
:1001D200BD000BB90029E88CF084F8ACF022E4CD24
:1001E200FF75F008E828F8E933F9ED33FDE99CEDF5
:1001F2009F4005FDE99CF908D5F0E9E4C9FC22EC31
:10020200FFF5F0E98420D21CF9ACF075F008E8287B
:10021200F8EC33FC40079F5006D5F0F222C39FFC56
:0502220008D5F0EA22FE
:10022700803C75F008758200E828F8E933F9CA338D
:10023700CACB33CBC58233C5829CEA9DEB9EE58250
:100247009F400CF582E99CF9EA9DFAEB9EFB08D5E5
:10025700F0D6E4C9FCE4CAFDE4CBFEAF8222EF602E
:100267000280BFEE6002805BED6002802DEB8CF0B8
:1002770084C8C9CAFBE5F0CCFE7F18E828F8E93343
:10028700F9EA33FAEB33FBEC33FC10D7039E400457
:10029700EC9EFC08DFE5E4FEFD227F18E828F8E97C
:1002A70033F9EA33FAEB33FBCE33CE10D7059CEEA6
:1002B7009D4007EB9CFBEE9DFE08DFE0E4CEFDE4EE
:1002C700CBFC2275F010E828F8E933F9EA33FACBCA
:1002D70033CBCF33CF10D7079CEB9DEF9E400AEA75
:1002E7009CFAEB9DFBEF9EFF08D5F0DAE4CAFCE42D
:0602F700CBFDE4CFFE2266
:0402FD0075B2822232
:10030100C2D5ED30E709B2D5E4C39CFCE49DFDE91B
:1003110030E715B2D5E4C398F8E499F91201D2C3D4
:10032100E49CFCE49DFD80031201D230D507C3E4B7
:0603310098F8E499F9229E
:10033700E519700543188080034318C0751F7C7545
:080347002080851821318F226E
:10034F00C2D5EF30E70FB2D5E4C39CFCE49DFDE4CA
:10035F009EFEE49FFFEB30E717B2D5120385120222
:10036F0027E4C39CFCE49DFDE49EFEE49FFF800315
:10037F0012022730D50DE4C398F8E499F9E49AFAFC
:05038F00E49BFB2222AB
:0A03940075A88575B80575E4102200
:07039E0053D9BF75D90022FD
:0D03A50075A5C075D40375D5C075E2402262
:0403B2007588052223
:1003B600A818861B31BB0518A8188601E970F1221A
:1003C600751B0485181C31AF751B0385191C31AFCD
:0903D600751B02851A1C31AF22CF
:1003DF00D296D297C3E50892E0F508209709E50871
:0803EF0030E002800280F422DC
:1003F700751D01751E8031A3751D02751E8031A301
:0A0407007E207FD0DFFEDEFC002225
:08041100E493F608A3D9F922D7
:0B041900719E71B271A551FD7194221B
:10042400EC600FE8C333F8E933F9EA33FAEB33FB52
:03043400DCF122D6
:10043700750F20751020751120751220751300C3D4
:10044700E50D940074006480F8E50E6480985012FE
:10045700750F2DC37400950DF50D7400950EF50EEF
:100467008003750F20D3E50D946374006480F8E56D
:100477000E648098404ED3E50D94E774036480F8CA
:10048700E50E648098503D7C647D00A80DA90E712F
:1004970001743028F5107C647D00A80DA90E710148
:1004A700A804A9057C0A7D007101743028F5117C28
:1004B7000A7D00A80DA90E7101A804A905743028AA
:1004C700F512A159D3E50D940974006480F8E50E7F
:1004D7006480984042D3E50D946374006480F8E526
:1004E7000E64809850317C647D00A80DA90E7101BF
:1004F700A804A9057C0A7D007101743028F5107CD9
:100507000A7D00A80DA90E7101A804A90574302859
:10051700F511751220803BC3E50D940074006480CB
:10052700F8E50E648098402AD3E50D9409740064B9
:1005370080F8E50E64809850197C0A7D00A80DA903
:100547000E7101A804A905743028F51075112075DE
:100557001220850B18850C19713775180F71B62283
:1005670071DF7D027E3F7F2BDFFEDEFCDDFA751D2E
:1005770028751E8031A37E507F8ADFFEDEFC007562
:100587001D28751E8031A37E507F8ADFFEDEFC00AA
:10059700751D28751E8031A37E507F8ADFFEDEFC25
:1005A70000751D28751E8031A3751D0C751E8031C1
:1005B700A371F7751D06751E8031A3751B00751C89
:1005C7000031AF751B08751CFF31AF751B01751C1A
:0F05D7002031AF75187F75197F751A7F71C62295
:1005E6007511207512207513207514207515207548
:1005F6001620751700C3E50D9400E50E9400E50F6F
:10060600940074006480F8E510648098501E75119B
:100616002DC37400950DF50D7400950EF50E74003E
:10062600950FF50F74009510F5108003751120D302
:10063600E50D940FE50E9427E50F94007400648091
:10064600F8E5106480985002E10C7C107D277E004E
:10065600750700A80DA90EAA0FAB10714F743028AC
:10066600F5127C107D277E00750700A80DA90EAA3D
:100676000FAB10714FA804A905AA06AB077CE87D4D
:10068600037E00750700714F743028F5137CE87DF2
:10069600037E00750700A80DA90EAA0FAB10714FB7
:1006A600A804A905AA06AB077C647D007E00750731
:1006B60000714F743028F5147C647D007E00750748
:1006C60000A80DA90EAA0FAB10714FA804A905AA80
:1006D60006AB077C0A7D007E00750700714F7430FB
:1006E60028F5157C0A7D007E00750700A80DA90E69
:1006F600AA0FAB10714FA804A905AA06AB07743060
:1007060028F51602095CD3E50D94E7E50E9403E59A
:100716000F940074006480F8E5106480985002E13C
:10072600E9D3E50D940FE50E9427E50F94007400C8
:100736006480F8E5106480984002E1E97C107D272A
:100746007E00750700A80DA90EAA0FAB10714FA861
:1007560004A905AA06AB077CE87D037E00750700A1
:10076600714F743028F5127CE87D037E0075070012
:10077600A80DA90EAA0FAB10714FA804A905AA06C9
:10078600AB077C647D007E00750700714F743028CE
:10079600F5137C647D007E00750700A80DA90EAADE
:1007A6000FAB10714FA804A905AA06AB077C0A7DFA
:1007B600007E00750700714F743028F5147C0A7DA1
:1007C600007E00750700A80DA90EAA0FAB10714F89
:1007D600A804A905AA06AB07743028F515751620D6
:1007E60002095CD3E50D9463E50E9400E50F9400D1
:1007F60074006480F8E510648098500201A2D3E585
:100806000D94E7E50E9403E50F940074006480F8F8
:10081600E510648098400201A27CE87D037E0075A5
:100826000700A80DA90EAA0FAB1012034FA804A922
:1008360005AA06AB077C647D007E007507001203DF
:100846004F743028F5127C647D007E00750700A881
:100856000DA90EAA0FAB1012034FA804A905AA06EC
:10086600AB077C0A7D007E0075070012034F7430CB
:1008760028F5137C0A7D007E00750700A80DA90ED9
:10088600AA0FAB1012034FA804A905AA06AB07745A
:100896003028F514751520751620215CD3E50D94C6
:1008A60009E50E9400E50F940074006480F8E510E5
:1008B6006480985002212FD3E50D9463E50E9400D1
:1008C600E50F940074006480F8E510648098505930
:1008D6007C647D007E00750700A80DA90EAA0FABEB
:1008E6001012034FA804A905AA06AB077C0A7D00CF
:1008F6007E0075070012034F743028F5127C0A7DBE
:10090600007E00750700A80DA90EAA0FAB101203F2
:100916004FA804A905AA06AB07743028F513751469
:1009260020751520751620802D7C0A7D007E0075A9
:100936000700A80DA90EAA0FAB1012034FA804A911
:1009460005AA06AB07743028F51275132075142016
:10095600751520751620850B18850C191203377529
:0609660018111203B62275
:10096C00C000C001C002C003C004C0D0C0E0C0F0D1
:10097C00C082C0837C01A845A946AA47AB48120493
:10098C00248500458501468502478503480544D0EA
:10099C0083D082D0F0D0E0D0D0D004D003D002D01D
:0409AC0001D0003244
:1009B000758180120AA7750900750A0012041912C0
:1009C00005671203F77518007519001203377518BB
:1009D0003A1203B6751800751901120337751830ED
:1009E0001203B6C3E5449419404874FF5545F50910
:1009F00074FF5546F50AA847A9487A005300FF75C9
:100A00000B0C750C0085000DE4F50E120437750B08
:100A10000A750C0185090D850A0EE4F50FE4F51041
:100A20001205E67545007546007547007548007566
:060A3000440080AF80FECF
:100A3600C000C001C002C003C004C0D0C0E0C0F006
:100A4600C082C0837C01A845A946AA47AB481204C8
:100A5600248500458501468502478503487401487B
:100A6600F545740049F54674004AF54774004BF5A0
:100A7600480544D083D082D0F0D0E0D0D0D004D086
:080A860003D002D001D00032C0
:0E0AA7007830791975828E75830A1204112237
:0A0A8E004361726420492E443A00CF
:0A0A9800466163696C6974793A00E5
:010AA2000053
:040AA300000000004F
:00000001FF
