:100000000201A00200000000000000020000000049
:1000100000000002000000000000000200000000DC
:1000200000000002000000000000000200000000CC
:1000300000000002000000000000000200000000BC
:1000400000000002000000000000000200000000AC
:10005000000000020000000000000002000000009C
:10006000000000020000000000000002000000008C
:0600700000000002033451
:0400760075B28222BB
:04007A0075B9F22240
:07007E0075A88075E68022E1
:10008500751508D374006480F8E5156480984022DE
:10009500E5145480F97004C2968002D296C2957810
:1000A50001E514088002C333D8FCF5141515D29563
:0300B50080D122D5
:1000B80075F1FD75A5E075D40275D5EE75E240229F
:0A00C8007591047592027593FC22F5
:0700D20053D9BF75D90022CC
:1000D900BD000BB90029E88CF084F8ACF022E4CD1E
:1000E900FF75F008E828F8E933F9ED33FDE99CEDEF
:1000F9009F4005FDE99CF908D5F0E9E4C9FC22EC2B
:10010900FFF5F0E98420D21CF9ACF075F008E82875
:10011900F8EC33FC40079F5006D5F0F222C39FFC50
:0501290008D5F0EA22F8
:10012E00C297E51224A0F9E43404FA85018285020F
:10013E0083E493F88500141185E51324B8F9E434AB
:10014E0004FA850182850283E493F88500141185F3
:03015E00D2972213
:08016100E493F608A3D9F9228A
:100169007A06A911E5100A8005C333C933C9DAF93A
:10017900F885001085011174C058F5965300005395
:0A01890001FFA8017900850097220C
:0D01930011D211C8117A11B81176117E2217
:1001A0007581801204BC7582AC7583047808790867
:1001B000316131932093187D027EDE7F42DFFEDEC7
:1001C000FCDDFA00750800750D00750E00050FC303
:1001D000E50F94034003750F002092187D037E7D88
:1001E0007F59DFFEDEFCDDFA7401250BF50B740090
:1001F000350CF50CD3E50B940F74276480F8E50CEF
:100200006480984006750B00750C002091197D03E1
:100210007E7D7F59DFFEDEFCDDFAC3E50B9401F540
:100220000BE50C9400F50CC3E50B9400740064809E
:10023000F8E50C6480985006750B0F750C27850B3C
:1002400031850C3241DF7A01E50833E495E0F9E5C8
:10025000080A8005C333C933C9DAF9F8746028FA8B
:10026000740439FB850282850383E493F8E4A39345
:10027000F985000D85010E41F17A01E50833E49519
:10028000E0F9E5080A8005C333C933C9DAF9F8741F
:100290002028FA740439FB850282850383E493F8ED
:1002A000E4A393F985000D85010E80457A01E508E8
:1002B00033E495E0F9E5080A8005C333C933C9DAA8
:1002C000F9F874E028FA740339FB85028285038308
:1002D000E493F8E4A393F985000D85010E8012E5FF
:1002E0000F640170024146E50F640270024179809B
:1002F000BB0508C374206480F8E508648098400357
:10030000750800850D10850E113169750900750A93
:1003100000C3E509950BE50A950C50147F03DFFE39
:10032000000074012509F5097400350AF50A80E119
:0403300021B480FE76
:10033400C000C001C002C005C007C0D0C0E0C0F00A
:10034400C082C08380547CE87D03A831A93211D9CE
:1003540085003061B47CE87D03A831A93211D9A8A5
:1003640004A9057C647D0011D985003080427C6439
:100374007D00A831A93211D9A804A9057C0A7D0001
:1003840011D985003080297C0A7D00A831A9321159
:10039400D9A804A9058500308016E53360A8E533A3
:1003A400640160B1E533640260C4E533640360D77B
:1003B400853012853313312E0533D3E5339403404E
:1003C4000375330053917FD083D082D0F0D0E0D036
:0C03D400D0D007D005D002D001D00032FC
:0E04BC00783079047582B475830412016122D0
:1003E00000026702CA0224037203B203DF03F903A7
:1003F000FF03EF03CB0394034D03F8029902340289
:10040000CC0167010801B3006C0035001100020047
:10041000070021004E008E00DC0036019901000229
:1004200000000000000000000000000000000000CC
:1004300000000000000000000000000000000000BC
:10044000FF03FF03FF03FF03FF03FF03FF03FF039C
:10045000FF03FF03FF03FF03FF03FF03FF03FF038C
:10046000000240028002C002000340038003C00378
:10047000FF03C003800340030003C0028002400268
:100480000002C001800140010001C0008000400066
:10049000000040008000C000000140018001C00158
:0C04A000C0F9A4B0999282F880907FBF50
:0104AC00004F
:0204AD0000004D
:0204AF0000004B
:0204B100000049
:0104B3000048
:0104B4000047
:0204B500000045
:0104B7000044
:0404B800F7FBFDFE53
:00000001FF
