:1000000002060A02000000000000000200000000DA
:1000100000000002000000000000000200000000DC
:1000200000000002000000000000000200000000CC
:1000300000000002000000000000000200000000BC
:1000400000000002000000000000000200000000AC
:10005000000000020000000000000002000000009C
:10006000000000020000000000000002000000008C
:0600700000000002069CE6
:1000760075A41275A5E075D5E075E10175E2422219
:0400860075D10F22FF
:07008A0075A88075E68022D5
:0400910075B28122A1
:0A0095007591047592017593FE2227
:10009F0080030201C6EE33EF3360110460F4EA33DC
:1000AF00EB337009EFFBEEFAEDF9ECF8220460E2A6
:1000BF00D3EC98ED99EE9AEFC2E78BF0C2F795F07B
:1000CF00400CEFCBFFEECAFEEDC9FDECC8FC1201F0
:1000DF009185D0F05F04700320D5B7EF04700750FF
:1000EF0002B2D50201D092D5EB0460F7E4CBC0E0A9
:1000FF00C39FFF603B94186008400DD0E0FC0201E5
:10010F00A8E4FCFDCEFB8028EF30E406E4CEFCE44F
:10011F00CDFBEF30E305E4CECDCCFBEF5407601001
:10012F00FFC3EE13FEED13FDEC13FCEB13FBDFF13E
:10013F0030F52DC3E49BFBE89CF8E99DF9EA9EFAA4
:10014F00D0E0FCE8494A4B701122DC028070EB2BA7
:10015F00FBE833F8E933F9EA33FAEA30E7EC8039B0
:10016F00E82CF8E93DF9EA3EFAD0E0FC50120CBC5D
:10017F000002804DEA13FAE913F9E813F8EB13FBC9
:10018F008017EED2E7CE33EF33FF92D5EAD2E7CA2C
:10019F0033EB33FB5002B2D522EB30E71008B80037
:1001AF000C09B900080ABA00040CEC6014A2D5ECD3
:1001BF0013FBEA92E7FA2274FFFBFAF9F822E480C4
:0D01CF00F8A2D574FF13FB7A80E480EF22C4
:0D01DC0075BB1075BA1175BCF075E8802276
:1001E900751808D374006480F8E518648098402273
:1001F900E5175480F97004C2968002D296C29578A8
:1002090001E517088002C333D8FCF5171518D295F4
:0302190080D1226F
:10021C0075D84053D9BF75D90275DB4675EA1422DF
:10022C003392D530D503120257EB334010E833F834
:10023C00E933F9EA33FAEB33FBD5F0ED22E5F024A0
:10024C007EA2D513CB92E7CAC9F822C3E498F8E48E
:09025C0099F9E49AFAE49BFB22F3
:040265007598102256
:10026900511C1195516531DC118611761191118A54
:010279002262
:08027A00E493F608A3D9F92270
:08028200EF6480FF12009F22CF
:10028A00C297E5152424F9E43407FA850182850228
:10029A0083E493F885001731E9E5162434F9E43448
:1002AA0007FA850182850283E493F885001731E90C
:0302BA00D29722B6
:1002BD00BD000BB90029E88CF084F8ACF022E4CD38
:1002CD00FF75F008E828F8E933F9ED33FDE99CED09
:1002DD009F4005FDE99CF908D5F0E9E4C9FC22EC45
:1002ED00FFF5F0E98420D21CF9ACF075F008E82890
:1002FD00F8EC33FC40079F5006D5F0F222C39FFC6B
:05030D0008D5F0EA2212
:0D031200C29985129920990280FBC29922A0
:10031F0080030203FFEB5A046005EF5E04700302D3
:10032F0003F51203C05F0460F6EB4F60F2EB70044D
:10033F00FAF9F822CF60DB2481CF5009C39F600206
:10034F0050060203FC9F50CAF582EE2E4C4D7005ED
:10035F00AC820203EB75F0007B1A7F80C3E89CE947
:10036F009DEA9E400DC3E89CF8E99DF9EA9EFAEFDD
:10037F0042F0DB22ABF0D0E0F8D0E0F9D0E0FAACFD
:10038F008220E7101CEC60BAEB2BFBE833F8E93363
:10039F00F9EA33FA8032EF03FF30E705C0F075F06A
:1003AF0000E828F8E933F9EA33FA40B930E7C380B7
:1003BF00ABEED2E7CE33EF33FF92D5EAD2E7CA33B3
:1003CF00EB33FB5002B2D522EB30E71008B8000C2C
:1003DF0009B900080ABA00040CEC60ECA2D5EC13C2
:1003EF00FBEA92E7FA2274FFFBFAF9F822E480F8AD
:0C03FF00A2D574FF13FB7A80E480EF228B
:10040B00EAD2E7CA33EB3392D524814006E4F8F9FC
:10041B00FAFB22FBE4C8C9CACB24E0501174FF805D
:10042B00EDC3CB13CBCA13CAC913C9C813C8047005
:10043B00F030D5DEC3E498F8E499F9E49AFAE49B3A
:02044B00FB2292
:10044D00E512540FF842D1E5125410FA7902EA0977
:0A045D008002C313D9FCF842BC2250
:100467008512BBC2ED43E89030ED0280FB85BD13DA
:10047700E4F514A9BE78007A00E5134200E51442BA
:02048700012250
:10048900EB4A6011EF4E7017EA33EB3304600DE469
:10049900FBF8F9FA22EE33EF330470F80205C212C1
:1004A900058D5F046009E4CB248150062F500902B1
:1004B90005CC2F40030205C9C0E0EC4D7044BE8055
:1004C90006D0E0FC0205B8E849701CBA8008ECF8CF
:1004D900EDF9EEFA80EBEE8AF0A4F9E5F002057287
:1004E900EECAFEEDF9ECF8E88EF0A4FBE5F0C98E52
:1004F900F0A429F8E435F0CA8EF0A42AF9E435F01D
:100509008067E8497005BA80D780C3E88CF0A4AB4E
:10051900F0E98CF0A42BFBE435F0FFE88DF0A42B77
:10052900E5F03FFBE433CC8AF0A42BFBE5F03CFF7C
:10053900E98DF0A42BFBE5F03FFFE433C88EF0A46E
:100549002BFBE5F03FC83400C98EF0A428F8E5F08C
:1005590039F9E433CE8AF0A429F9E5F03ECA8DF0E1
:10056900A428F8E5F039F9E43AFA33D0E0FC50066A
:100579000CBC000E804DEB2BFBE833F8E933F9EAAC
:1005890033FA8017EED2E7CE33EF33FF92D5EAD2B2
:10059900E7CA33EB33FB5002B2D522EB30E7100840
:1005A900B8000C09B900080ABA00040CEC6014A2DE
:1005B900D5EC13FBEA92E7FA2274FFFBFAF9F82269
:0F05C900E480F8A2D574FF13FB7A80E480EF2260
:1005D800750B12750C03750D127508FF7509FF75FB
:1005E8000A00750EFF750FFF75100043E10143E225
:0B05F80040758840758920759810221E
:0706030075F020E4512C22E8
:10060A007581801207387511005169538EFC538E1B
:10061A00F7758D2BB1D8751208914D751210916727
:10062A00D1037C007D007E487507459189910BD1E5
:10063A00037C007DC07E7F750744711F910BD10337
:10064A007C007D007E4275074451827C3D7D0A7E96
:10065A0037750740711F910B85003285013385007C
:10066A00117512AA711275F00AE51184F82430F591
:10067A0012711275F00AE51184E5F0F82430F512CA
:10068A0071127D0D7E6E7FC7DFFEDEFCDDFAC125AD
:02069A0080FEE0
:10069C00C000C001C002C004C005C007C0D0C0E08B
:1006AC00C0F0C082C083802C7C0A7D00A832A933A4
:1006BC0051BD85003180337C0A7D00A832A93351AD
:1006CC00BDA804A905850031802075310A801B75F1
:1006DC00310B8016E53060D0E530640160D9E5302F
:1006EC00640260E6E530640360E5853115853016FB
:1006FC00518A0530D3E53094034003753000539193
:10070C007FD083D082D0F0D0E0D0D0D007D005D02D
:08071C0004D002D001D000322C
:0E0738007830790475823075830712027A22B8
:0C072400C0F9A4B0999282F880909CC6A5
:0107300000C8
:0107310000C7
:020732000000C5
:04073400F7FBFDFED4
:00000001FF
