:100000000202ED02000000000000000200000000FB
:1000100000000002000000000000000200000000DC
:1000200000000002000000000000000200000000CC
:1000300000000002000000000000000200000000BC
:1000400000000002000000000000000200000000AC
:10005000000000020000000000000002000000009C
:10006000000000020000000000000002000000008C
:0600700000000002037114
:0B0076007E027F9DDFFEDEFC0000220A
:0B0081007E0B7F57DFFEDEFC0000223C
:10008C00750D00750E0075B281E5EF30E24A75A969
:10009C0000750D00750E00C3E50D940974006480A5
:1000AC00F8E50E648098502ED2817D057EDF7FBBF3
:1000BC00DFFEDEFCDDFA0000C2817D057EDF7FBB4A
:1000CC00DFFEDEFCDDFA00007401250DF50D740079
:1000DC00350EF50E80C1215D75B167750D00750E7D
:1000EC0000C3E50D94B8740B6480F8E50E64809839
:1000FC00500E7401250DF50D7400350EF50E80E1D2
:10010C00E5B15480F9700280F775A901750D007581
:10011C000E00C3E50D940974006480F8E50E64804C
:10012C0098502ED2817D047EA87F0BDFFEDEFCDD95
:10013C00FA0000C2817D047EA87F0BDFFEDEFCDDB1
:10014C00FA00007401250DF50D7400350EF50E80C6
:0F015C00C17DA37E577F02DFFEDEFCDDFA0022AD
:04016B0075EF042206
:05016F007F05DFFE2208
:10017400751208D374006480F8E5126480984022F4
:10018400E5115480F97004C2968002D296C2957823
:1001940001E511088002C333D8FCF5111512D2957C
:0301A40080D122E5
:0A01A7007E027F08DFFEDEFC00226E
:1001B10075F1F375A40275A5E075D40E75D5D075EA
:0301C100E24022F7
:0701C40075A88075E680229A
:0701CB0053D9BF75D90022D2
:0A01D2007591047592CA7593FA2224
:0801DC00E493F608A3D9F9220F
:1001E400BD000BB90029E88CF084F8ACF022E4CD12
:1001F400FF75F008E828F8E933F9ED33FDE99CEDE3
:100204009F4005FDE99CF908D5F0E9E4C9FC22EC1E
:10021400FFF5F0E98420D21CF9ACF075F008E82869
:10022400F8EC33FC40079F5006D5F0F222C39FFC44
:0502340008D5F0EA22EC
:10023900C297E50F24F5F9E43403FA8501828502B2
:1002490083E493F88500113174E5102405F9E43449
:1002590004FA850182850283E493F88500113174DB
:03026900D2972207
:0D026C0031CB31D231B1118C316B31C42254
:10027900C2941181D2941176A294E433F50A1181C2
:03028900A80A229E
:10028C00750B00D3E50B94075020A80BE50A0880EA
:10029C0002C313D8FCF50CC294316F316FE50C130B
:0F02AC0092941176D294050B80D931A731A722F5
:1002BB00750B00750A00D3E50A94075022C29431DE
:1002CB006FD294316FA294E433FAA90AEA0980023F
:1002DB00C333D9FCF8420B31A731A7050A80D7A845
:0202EB000B22E4
:1002ED00758180120409750800750900516C5179EA
:1002FD00750ACC518C750A44518C7E037F7DDFFECF
:10030D00DEFC5179750ACC518C750ABE518C51BBEE
:10031D00850008E4F50951BBA90078007A00E825AD
:10032D0008FAE93509FB8502088503097804EB8590
:10033D000230088007C313C53013C530D8F7F53127
:10034D00D2817D197E5A7FB1DFFEDEFCDDFA000021
:10035D00C2817D197E5A7FB1DFFEDEFCDDFA000021
:04036D0041FB80FED2
:10037100C000C001C002C005C007C0D0C0E0C0F0CD
:10038100C082C083802C7C0A7D00A830A93131E471
:1003910085003280337C0A7D00A830A93131E4A880
:1003A10004A905850032802075320A801B75320B45
:1003B1008016E53360D0E533640160D9E53364022A
:1003C10060E6E533640360E585320F85331051390A
:1003D1000533D3E5339403400375330053917FD044
:1003E10083D082D0F0D0E0D0D0D007D005D002D0D9
:0403F10001D0003205
:0E040900783079047582017583041201DC22BB
:0C03F500C0F9A4B0999282F880909CC6D8
:020401000000F9
:0104030000F8
:0104040000F7
:04040500F7FBFDFE06
:00000001FF
