:1000000002041C02000000000000000200000000CA
:1000100000000002000000000000000200000000DC
:100020000000000204410000000000020000000087
:1000300000000002000000000000000200000000BC
:1000400000000002000000000000000200000000AC
:10005000000000020000000000000002000000009C
:10006000000000020000000000000002000000008C
:0600700000000002046F15
:0D007600C299852F9920990280FBC2992222
:10008300753C08753D00753EFF753FFF753D00C328
:10009300E53D952E505BE52D253DF88600E4F9E816
:1000A300623EE9623F753C08D3E53C9400403E74F0
:1000B30001553EF97400553FFAE94A70147801E599
:1000C3003F088007C313C53E13C53ED8F7F53F80ED
:1000D300187801E53F088007C313C53E13C53ED812
:1000E300F7F53F633E01633FA0153C80BB053D012F
:0600F30092A83EA93F2285
:0C00F900A821A62D08A81FA920519122C3
:10010500752D07D374FF6480F8E52D648098400B46
:0C0115007408252DF87600152D80E822D6
:1001210074FF553CF9A83FA601E53C5400F8E53DB4
:0C01310054FFF9AA017B00A83EA60222A0
:04013D0075B28222F3
:100141003392D530D50312016CEB334010E833F80C
:10015100E933F9EA33FAEB33FBD5F0ED22E5F0248C
:100161007EA2D513CB92E7CAC9F822C3E498F8E47A
:0901710099F9E49AFAE49BFB22DF
:10017A00752A00752B00752C008526348527358550
:10018A00283CE4F53D753E2C753F2B3121852C36F4
:10019A00852B3785293CE4F53D753E2C753F2B317F
:1001AA0021852C38852B39752D34752E06118385BA
:1001BA00003C85013D753E2C753F2B3121852B3A3C
:1001CA00852C3B3105752A00C3E52A9408500D7425
:1001DA0034252AF8862D11F9052A80EC7518007D38
:0C01EA00037E7D7F59DFFEDEFCDDFA2283
:1001F600752800752900852628E4F529A9287800A0
:10020600850028850129E5274200E442018500286A
:040216008501292213
:05021A00C298A8992222
:06021F00A298E433F8226E
:10022500754508D374006480F8E5456480984022DC
:10023500E5445480F97004C2968002D296C295783E
:1002450001E544088002C333D8FCF5441545D29531
:0302550080D12233
:10025800751F7675200075212F75191A751A027584
:100268001B00751C1F751D02751E0043E10143E24A
:0B0278004075884075892075981022A1
:0702830075A89075E68022CA
:07028A0053D9BF75D9002212
:05029100C000C00122C5
:0A0296007591047592027593FC2225
:1002A00075A43075A5E075D5E075E10175E24022D1
:0802B000E493F608A3D9F9223A
:1002B800518A519651A0313D5183538EFC438E088B
:0602C800758DCB51582298
:1002CE00C297E5422430F9E43405FA8501828502AD
:1002DE0083E493F88500445125E5432440F9E43442
:1002EE0005FA850182850283E493F8850044512541
:0302FE00D2972272
:10030100BD000BB90029E88CF084F8ACF022E4CDF3
:10031100FF75F008E828F8E933F9ED33FDE99CEDC4
:100321009F4005FDE99CF908D5F0E9E4C9FC22EC00
:10033100FFF5F0E98420D21CF9ACF075F008E8284B
:10034100F8EC33FC40079F5006D5F0F222C39FFC26
:0503510008D5F0EA22CE
:07035600A819A91A51912218
:07035D0075F020E43141229C
:10036400752200752300752488752513752601757B
:100374002703752810752901317AE5086401705145
:10038400E5096403704BE50A64027045752D087530
:100394002E051183850022850123850E26850D27D0
:1003A40031F6E522687003E52369701F850B268505
:1003B4000C2731F6850024850125D3E894D0E994EF
:1003C40007400675244075259C80067524407525D4
:0603D4009CA824A92522CB
:1003DA00EAD2E7CA33EB3392D524814006E4F8F92E
:1003EA00FAFB22FBE4C8C9CACB24E0501174FF808F
:1003FA00EDC3CB13CBCA13CAC913C9C813C8047037
:10040A00F030D5DEC3E498F8E499F9E49AFAE49B6B
:02041A00FB22C3
:10041C0075818012054451B87164715D71DA850083
:10042C00328501337D197EDC7F90DFFEDEFCDDFA48
:05043C000080E580FED8
:10044100C000C0D0C0E0C0F0C082C08374082518CD
:10045100F88500417156850040A841A6400518C2A3
:0E04610098D083D082D0F0D0E0D0D0D000323E
:10046F00C000C001C002C005C007C0D0C0E0C0F0CE
:10047F00C082C08380547CE87D03A832A933710108
:10048F0085003081EF7CE87D03A832A9337101A884
:10049F0004A9057C647D00710185003080427C6475
:1004AF007D00A832A9337101A804A9057C0A7D003B
:1004BF00710185003080297C0A7D00A832A9337133
:1004CF0001A804A9058500308016E53160A8E53143
:1004DF00640160B1E531640260C4E531640360D743
:1004EF00C3E5329440E533949C400A75420B853145
:1004FF004351CE800885304285314351CE0531D3EB
:10050F00E5319403400375310053917FD083D0823E
:10051F00D0F0D0E0D0D0D007D005D002D001D0009D
:01052F003299
:0E0544007830790475823C7583051202B0226E
:0C053000C0F9A4B0999282F880907FBFBF
:01053C0000BE
:01053D0000BD
:02053E000000BB
:04054000F7FBFDFECA
:00000001FF
