:1000000002018E020000000000000002000000005B
:1000100000000002000000000000000200000000DC
:1000200000000002000000000000000200000000CC
:1000300000000002000000000000000200000000BC
:1000400000000002000000000000000200000000AC
:10005000000000020000000000000002000000009C
:10006000000000020000000000000002000000008C
:0600700000000002021373
:0A00760075A88075E68075EC002285
:0700800075B28275EC00224D
:10008700750D08D374006480F8E50D6480984022EC
:10009700E50C5480F97004C2968002D296C2957816
:1000A70001E50C088002C333D8FCF50C150DD29579
:0300B70080D122D3
:1000BA0053D9BF75D90075DC0175EBFF75D9407549
:0300CA00EC002225
:0D00CD0075A5E075D5F075E24075EC0022D8
:0D00DA007591047592027593FC75EC00227F
:1000E700BD000BB90029E88CF084F8ACF022E4CD10
:1000F700FF75F008E828F8E933F9ED33FDE99CEDE1
:100107009F4005FDE99CF908D5F0E9E4C9FC22EC1C
:10011700FFF5F0E98420D21CF9ACF075F008E82867
:10012700F8EC33FC40079F5006D5F0F222C39FFC42
:0501370008D5F0EA22EA
:10013C00C297E50A24BBF9E43402FA8501828502F0
:10014C0083E493F885000C1187E50B24CBF9E43498
:10015C0002FA850182850283E493F885000C1187ED
:03016C00D2972205
:10016F0075D90011DA11CD1180117611BAD297D24B
:07017F0095C29675EC002209
:08018600E493F608A3D9F92265
:10018E007581801202CF7508C8750900316F740130
:10019E002531F53174003532F5327D027E3F7F2BED
:1001AE00DFFEDEFCDDFA30942375EC007D027E3F2F
:1001BE007F2BDFFEDEFCDDFA75EC007D027E3F7FDD
:1001CE002BDFFEDEFCDDFA75EC00803575EC00D31E
:1001DE00E508940074006480F8E509648098401F77
:1001EE0075EC007D027EDE7F42DFFEDEFCDDFA0076
:1001FE00C3E5089401F508E5099400F50980D0805F
:05020E00FE808B80FE64
:10021300C000C001C005C007C0D0C0E0C0F0C082AC
:10022300C08380547CE87D03A831A93211E785009F
:100233003041917CE87D03A831A93211E7A804A9D4
:10024300057C647D0011E785003080427C647D007D
:10025300A831A93211E7A804A9057C0A7D0011E79A
:1002630085003080297C0A7D00A831A93211E7A8D6
:1002730004A9058500308016E53360A8E5336401E1
:1002830060B1E533640260C4E533640360D785304D
:100293000A85330B313C0533D3E5339403400375AF
:1002A300330053917FD083D082D0F0D0E0D0D0D030
:0802B30007D005D001D0003294
:0E02CF00783079047582C77583021201862289
:0C02BB00C0F9A4B0999282F880907FBF37
:0102C7000036
:0202C800000034
:0102CA000033
:0402CB00F7FBFDFE42
:00000001FF
