:100000000201B80200000000000000020000000031
:1000100000000002000000000000000200000000DC
:100020000000000201FD00000000000200000000CE
:1000300000000002000000000000000200000000BC
:1000400000000002000000000000000200000000AC
:10005000000000020000000000000002000000009C
:10006000000000020000000000000002000000008C
:0600700000000002022B5B
:1000760075A41075A5E075D5E075E10175E240221D
:0700860075A89075E68022C9
:04008D0075B28222A4
:05009100C298A89922AD
:10009600751608D374006480F8E5166480984022CB
:1000A600E5155480F97004C2968002D296C29578FE
:1000B60001E515088002C333D8FCF5151516D2954F
:0300C60080D122C4
:0500C900C000C001228F
:0600CE00A298E433F822C1
:0700D40053D9BF75D90022CA
:0A00DB007591047592027593FC22E2
:0400E50075981022D8
:0800E900E493F608A3D9F92203
:1000F100BD000BB90029E88CF084F8ACF022E4CD06
:10010100FF75F008E828F8E933F9ED33FDE99CEDD6
:100111009F4005FDE99CF908D5F0E9E4C9FC22EC12
:10012100FFF5F0E98420D21CF9ACF075F008E8285D
:10013100F8EC33FC40079F5006D5F0F222C39FFC38
:0501410008D5F0EA22E0
:10014600C297E51324A3F9E43402FA8501828502F5
:1001560083E493F88500151196E51424B7F9E43481
:1001660002FA850182850283E493F88500151196CB
:03017600D29722FB
:0D01790011D411DB11E51176118D118622D4
:07018600A80EA90F11C92208
:10018D007508FF7509FF750AFF750E91750F0075DE
:10019D001000750BCE750C00750D0043E10143E2A7
:0B01AD0040758840758920759810226D
:1001B8007581801202BB3179538EFC538EF7438EC2
:1001C80002758D96318DC3E53194034024E535647D
:1001D800AA701BC3E5369430F875F00AE8A4F9C391
:1001E800E5379430F8E928F8850033E4F5347531BB
:0501F8000080D380FE31
:1001FD00C000C0D0C0E0C0F0C082C08374352531CE
:10020D00F88500123186850011A812A6110531C29C
:0E021D0098D083D082D0F0D0E0D0D0D0003284
:10022B00C000C001C0D0C0E0C0F0C082C083802C31
:10023B007C0A7D00A833A93411F185003080337C12
:10024B000A7D00A833A93411F1A804A90585003053
:10025B00802075300A801B75300B8016E53260D01C
:10026B00E532640160D9E532640260E6E53264038D
:10027B0060E585301385321431460532D3E532946F
:10028B0003400375320053917FD083D082D0F0D0DE
:08029B00E0D0D0D001D0003208
:0E02BB00783079087582AF7583021200E9224F
:0C02A300C0F9A4B0999282F880909CC62B
:0102AF00004E
:0102B000004D
:0102B100004C
:0202B20000004A
:0302B40000000047
:0402B700F7FBFDFE56
:00000001FF
