:1000000002104C020000000000000002000000008E
:10001000000000020000000000000002100A0000C2
:1000200000000002000000000000000200000000CC
:1000300000000002000000000000000200000000BC
:1000400000000002000000000000000200000000AC
:10005000000000020000000000000002000000009C
:100060000000000210230000000000020000000059
:0600700000000002000088
:1000760075780843A54043D44053907FD3E57894E0
:10008600004040E5775480FA7807EA088002C313F7
:10009600D8FCF9600543904080035390BF7801E592
:1000A60077088002C333D8FCF5777F51DFFE004323
:1000B60090807F51DFFE0053907F7F51DFFE001559
:0400C6007880B92263
:1000CA0043A54043D4404390404390807FA3DFFE42
:0B00DA005390BF7FA3DFFE53907F22F6
:1000E50043A54043D4405390BF53907F7FA3DFFE89
:0B00F5004390404390807FA3DFFE2279
:1001000053907F43A54043D440800A5390BF800D55
:100110004390408008E57764FF60F080F37F51DF13
:0E012000FE004390807F51DFFE0053907F224F
:10012E0011CA75774E11767577FF31008576771186
:09013E00767577FF310011E5220E
:10014700E5094404F8850009850076312E7E107F85
:10015700E7DFFEDEFC0000E50954F9F885000985B4
:0F0167000076312E7E107FE7DFFEDEFC000022E7
:10017600E52F54F0F9E509540FF8850009E9420026
:10018600850009850076312E3147E52F540FFA7820
:1001960004EA088002C333D8FCF9E509540FF88550
:1001A6000009E94200850009850076312E31472293
:1001B600800A5309F4800F430901800AE52E60F294
:1001C600E52E640160F1800A430908800F5309F7A0
:1001D600800AE508640160F0E50860F1850976317A
:1001E6002E852D2F31767E107FE7DFFEDEFC0000A8
:0101F60022E6
:1001F700803C75F008758200E828F8E933F9CA33BE
:10020700CACB33CBC58233C5829CEA9DEB9EE58280
:100217009F400CF582E99CF9EA9DFAEB9EFB08D515
:10022700F0D6E4C9FCE4CAFDE4CBFEAF8222EF605E
:100237000280BFEE6002805BED6002802DEB8CF0E8
:1002470084C8C9CAFBE5F0CCFE7F18E828F8E93373
:10025700F9EA33FAEB33FBEC33FC10D7039E400487
:10026700EC9EFC08DFE5E4FEFD227F18E828F8E9AC
:1002770033F9EA33FAEB33FBCE33CE10D7059CEED6
:100287009D4007EB9CFBEE9DFE08DFE0E4CEFDE41E
:10029700CBFC2275F010E828F8E933F9EA33FACBFA
:1002A70033CBCF33CF10D7079CEB9DEF9E400AEAA5
:1002B7009CFAEB9DFBEF9EFF08D5F0DAE4CAFCE45D
:0602C700CBFDE4CFFE2296
:1002CD00C3E52C9420400FD3E52C947F5008852C4A
:0702DD002D752E0131B62240
:1002E400BD000BB90029E88CF084F8ACF022E4CD11
:1002F400FF75F008E828F8E933F9ED33FDE99CEDE2
:100304009F4005FDE99CF908D5F0E9E4C9FC22EC1D
:10031400FFF5F0E98420D21CF9ACF075F008E82868
:10032400F8EC33FC40079F5006D5F0F222C39FFC43
:0503340008D5F0EA22EB
:10033900A82A862C51CD052AA82A8601E970F1221E
:10034900C2D5ED30E709B2D5E4C39CFCE49DFDE9D3
:1003590030E715B2D5E4C398F8E499F91202E4C379
:10036900E49CFCE49DFD80031202E430D507C3E45C
:0603790098F8E499F92256
:10037F00E52B700D7480452AF52D752E0031B68052
:0D038F000B74C0452AF52D752E0031B622E5
:10039C0075E24043A54043D44043A58043D4807EBE
:0E03AC00027F96DFFEDEFC43904043908022ED
:1003BA00C2D5EF30E70FB2D5E4C39CFCE49DFDE45F
:1003CA009EFEE49FFFEB30E717B2D51203F012014D
:1003DA00F7E4C39CFCE49DFDE49EFEE49FFF8003DA
:1003EA001201F730D50DE4C398F8E499F9E49AFAC2
:0503FA00E49BFB222240
:1003FF003392D530D50312042AEB334010E833F88B
:10040F00E933F9EA33FAEB33FBD5F0ED22E5F024CB
:10041F007EA2D513CB92E7CAC9F822C3E498F8E4B9
:09042F0099F9E49AFAE49BFB221E
:10043800800302055FEE33EF3360110460F4EA33A2
:10044800EB337009EFFBEEFAEDF9ECF8220460E209
:10045800D3EC98ED99EE9AEFC2E78BF0C2F795F0DE
:10046800400CEFCBFFEECAFEEDC9FDECC8FC12054F
:100478002A85D0F05F04700320D5B7EF04700750C9
:1004880002B2D502056992D5EB0460F7E4CBC0E06F
:10049800C39FFF603B94186008400DD0E0FC020544
:1004A80041E4FCFDCEFB8028EF30E406E4CEFCE41A
:1004B800CDFBEF30E305E4CECDCCFBEF5407601065
:1004C800FFC3EE13FEED13FDEC13FCEB13FBDFF1A2
:1004D80030F52DC3E49BFBE89CF8E99DF9EA9EFA08
:1004E800D0E0FCE8494A4B701122DC028070EB2B0B
:1004F800FBE833F8E933F9EA33FAEA30E7EC803914
:10050800E82CF8E93DF9EA3EFAD0E0FC50120CBCC0
:100518000002804DEA13FAE913F9E813F8EB13FB2C
:100528008017EED2E7CE33EF33FF92D5EAD2E7CA8F
:1005380033EB33FB5002B2D522EB30E71008B8009A
:100548000C09B900080ABA00040CEC6014A2D5EC36
:1005580013FBEA92E7FA2274FFFBFAF9F822E48027
:0D056800F8A2D574FF13FB7A80E480EF2227
:1005750074F8CF6480CFCB6480CBF58204700280A1
:1005850043C3E89CF5F0E99D42F0EA9E42F0EB9FFB
:1005950045F060305018E5825CFCE582F428558210
:1005A500F8502109B9001D0ABA00190B8016E58219
:1005B50058F8E582F42C5582FC50090DBD00050E56
:1005C500BE00010FC3E89CF5F0E99D42F0EA9E42AA
:1005D500F0EB9F45F06007CF4B20E701B3EF2222F8
:1005E50075222E7523207524207525207526207CDF
:1005F500647D00A81FA9207149743028F523D3E52F
:1006050021940140337C0A7D00A81FA92071497CF3
:100615000A7D007149A804A905743028F524D3E59D
:1006250021940140137C0A7D00A81FA9207149A8C7
:1006350004A905743028F525851D2A851E2B717F93
:06064500752A2271392222
:10064B00EB4A6011EF4E7017EA33EB3304600DE4A5
:10065B00FBF8F9FA22EE33EF330470F80207841239
:10066B00074F5F046009E4CB248150062F50090229
:10067B00078E2F400302078BC0E0EC4D7044BE8009
:10068B0006D0E0FC02077AE849701CBA8008ECF847
:10069B00EDF9EEFA80EBEE8AF0A4F9E5F0020734FF
:1006AB00EECAFEEDF9ECF8E88EF0A4FBE5F0C98E8E
:1006BB00F0A429F8E435F0CA8EF0A42AF9E435F059
:1006CB008067E8497005BA80D780C3E88CF0A4AB8B
:1006DB00F0E98CF0A42BFBE435F0FFE88DF0A42BB4
:1006EB00E5F03FFBE433CC8AF0A42BFBE5F03CFFB9
:1006FB00E98DF0A42BFBE5F03FFFE433C88EF0A4AB
:10070B002BFBE5F03FC83400C98EF0A428F8E5F0C8
:10071B0039F9E433CE8AF0A429F9E5F03ECA8DF01D
:10072B00A428F8E5F039F9E43AFA33D0E0FC5006A6
:10073B000CBC000E804DEB2BFBE833F8E933F9EAE8
:10074B0033FA8017EED2E7CE33EF33FF92D5EAD2EE
:10075B00E7CA33EB33FB5002B2D522EB30E710087C
:10076B00B8000C09B900080ABA00040CEC6014A21A
:10077B00D5EC13FBEA92E7FA2274FFFBFAF9F822A5
:0F078B00E480F8A2D574FF13FB7A80E480EF229C
:0F079A00719C7D027E3F7F2BDFFEDEFCDDFA22AD
:0707A90053D9BF75D90022EE
:1007B00075F1FC75A40475A5C075D40775D5D07501
:0307C000E2C02272
:0707C30075F020EB71FF222D
:0407CA0075B2822260
:1007CE007523207524207525207526207527207504
:1007DE002820752900C3E51F9400E5209400E5212B
:1007EE00940074006480F8E522648098501E75238E
:1007FE002DC37400951FF51F74009520F52074000D
:10080E009521F52174009522F5228003752320D3BE
:10081E00E51F940FE5209427E52194007400648071
:10082E00F8E522648098500201FB7C107D277E0043
:10083E00750700A81FA920AA21AB221203BA743093
:10084E0028F5247C107D277E00750700A81FA9209F
:10085E00AA21AB221203BAA804A905AA06AB077CEB
:10086E00E87D037E007507001203BA743028F52563
:10087E007CE87D037E00750700A81FA920AA21AB86
:10088E00221203BAA804A905AA06AB077C647D0050
:10089E007E007507001203BA743028F5267C647D3D
:1008AE00007E00750700A81FA920AA21AB22120303
:1008BE00BAA804A905AA06AB077C0A7D007E0075BE
:1008CE0007001203BA743028F5277C0A7D007E00DB
:1008DE00750700A81FA920AA21AB221203BAA804EB
:1008EE00A905AA06AB07743028F5286151D3E51F78
:1008FE0094E7E5209403E521940074006480F8E504
:10090E0022648098500221DED3E51F940FE52094D7
:10091E0027E521940074006480F8E52264809840F5
:10092E000221DE7C107D277E00750700A81FA920FE
:10093E00AA21AB221203BAA804A905AA06AB077C0A
:10094E00E87D037E007507001203BA743028F52483
:10095E007CE87D037E00750700A81FA920AA21ABA5
:10096E00221203BAA804A905AA06AB077C647D006F
:10097E007E007507001203BA743028F5257C647D5D
:10098E00007E00750700A81FA920AA21AB22120322
:10099E00BAA804A905AA06AB077C0A7D007E0075DD
:1009AE0007001203BA743028F5267C0A7D007E00FB
:1009BE00750700A81FA920AA21AB221203BAA8040A
:1009CE00A905AA06AB07743028F5277528206151B2
:1009DE00D3E51F9463E5209400E521940074006430
:1009EE0080F8E52264809850024197D3E51F94E782
:1009FE00E5209403E521940074006480F8E52264F8
:100A0E008098400241977CE87D037E00750700A820
:100A1E001FA920AA21AB221203BAA804A905AA066F
:100A2E00AB077C647D007E007507001203BA74303C
:100A3E0028F5247C647D007E00750700A81FA92080
:100A4E00AA21AB221203BAA804A905AA06AB077CF9
:100A5E000A7D007E007507001203BA743028F52552
:100A6E007C0A7D007E00750700A81FA920AA21AB75
:100A7E00221203BAA804A905AA06AB07743028F5FA
:100A8E00267527207528206151D3E51F9409E5208E
:100A9E009400E521940074006480F8E52264809847
:100AAE0050026124D3E51F9463E5209400E5219460
:100ABE000074006480F8E52264809850597C647D4F
:100ACE00007E00750700A81FA920AA21AB221203E1
:100ADE00BAA804A905AA06AB077C0A7D007E00759C
:100AEE0007001203BA743028F5247C0A7D007E00BC
:100AFE00750700A81FA920AA21AB221203BAA804C9
:100B0E00A905AA06AB07743028F52575262075278A
:100B1E0020752820802D7C0A7D007E00750700A898
:100B2E001FA920AA21AB221203BAA804A905AA065E
:100B3E00AB07743028F524752520752620752720DF
:100B4E00752820851D2A851E2B12037F752A2312D8
:030B5E0003392236
:080B6100EF6480FF120438224A
:100B6900EAD2E7CA33EB3392D524814006E4F8F997
:100B7900FAFB22FBE4C8C9CACB24E0501174FF80F8
:100B8900EDC3CB13CBCA13CAC913C9C813C80470A0
:100B9900F030D5DEC3E498F8E499F9E49AFAE49BD5
:020BA900FB222D
:100BAB00759B8A7F51DFFE00539BCF759F00759D10
:020BBB00112205
:070BBD0075A88875E62022EF
:080BC400E493F608A3D9F9221D
:0E0BCC001207A971AB1207B01207CA71BD2241
:080BDA0075F020E41203FF2274
:100BE2008003020CC2EB5A046005EF5E047003023C
:100BF2000CB8120C835F0460F6EB4F60F2EB7004EA
:100C0200FAF9F822CF60DB2481CF5009C39F60023A
:100C12005006020CBF9F50CAF582EE2E4C4D700555
:100C2200AC82020CAE75F0007B1A7F80C3E89CE9AF
:100C32009DEA9E400DC3E89CF8E99DF9EA9EFAEF11
:100C420042F0DB22ABF0D0E0F8D0E0F9D0E0FAAC31
:100C52008220E7101CEC60BAEB2BFBE833F8E93397
:100C6200F9EA33FA8032EF03FF30E705C0F075F09E
:100C720000E828F8E933F9EA33FA40B930E7C380EB
:100C8200ABEED2E7CE33EF33FF92D5EAD2E7CA33E7
:100C9200EB33FB5002B2D522EB30E71008B8000C60
:100CA20009B900080ABA00040CEC60ECA2D5EC13F6
:100CB200FBEA92E7FA2274FFFBFAF9F822E480F8E1
:0C0CC200A2D574FF13FB7A80E480EF22BF
:100CCE00751900751A00751B00751C00A814A9155E
:100CDE00AA16AB17716985001985011A85021B8545
:100CEE00031C85121D85131E85001F85012085029C
:100CFE00218503221207CEA819A91AAA1BAB1C1212
:100D0E0007C3AC00AD01AE02AF03A814A915AA1615
:100D1E00AB1771617C007D007E7A75074412064B1D
:100D2E00716985001985011A85021B85031CC3E8AC
:100D3E009400E99400EA940074006480FCEB6480F3
:100D4E009C5019C374009519F5197400951AF51A6B
:100D5E007400951BF51B7400951CF51CC37C007D5F
:100D6E00007E00750700A814A915AA16AB17120568
:100D7E00754004780080027801E8601D63140063FA
:100D8E00150063160063178085122A85132B120334
:100D9E007F752C2D1202CD800F85122A85132B12F2
:100DAE00037F752C201202CDC37C007D407E1C7506
:100DBE000746A814A915AA16AB1712057550047884
:100DCE000080027801E86037C37C007D507EC375D9
:100DDE000747A814A915AA16AB1712057540047873
:100DEE000080027801E86017E5122406F51D8513D0
:100DFE001E85191F851A208518211205E5E147C3A6
:100E0E007C007D007E7A750744A814A915AA16AB3E
:100E1E00171205755004780080027801E86037C318
:100E2E007C007D407E1C750746A814A915AA16AB3A
:100E3E00171205754004780080027801E86017E506
:100E4E00122405F51D85131E85191F851A20851878
:100E5E00211205E5E147C37C007D007EC87507427F
:100E6E00A814A915AA16AB171205755004780080A0
:100E7E00027801E86037C37C007D007E7A750744F6
:100E8E00A814A915AA16AB17120575400478008090
:100E9E00027801E86017E5122404F51D85131E85FE
:100EAE00191F851A208518211205E5E147C37C001C
:100EBE007D007E20750741A814A915AA16AB17123E
:100ECE0005755004780080027801E86037C37C0015
:100EDE007D007EC8750742A814A915AA16AB171275
:100EEE0005754004780080027801E86017E5122449
:100EFE0003F51D85131E85191F851A2085182112CD
:100F0E0005E58035C37C007D007E20750741A81461
:100F1E00A915AA16AB171205754004780080027841
:100F2E0001E86015E5122402F51D85131E85191FB3
:0A0F3E00851A208518211205E5220E
:100F4800751200751300858D12E4F513A912780047
:100F5800850012850113E58B4200E44201850012E9
:040F680085011322CA
:100F6C0012079A7EA07F15DFFEDEFC0000750801DB
:100F7C0075090475760412012E7EA07F15DFFEDE46
:100F8C00FC0000752D33752E001201B6752D3275CF
:100F9C002E001201B6752D28752E001201B6752D76
:100FAC000C752E001201B6752D01752E001201B6AE
:0A0FBC00752D06752E001201B622F5
:100FC600752D01752E001201B6752D02752E0012B3
:030FD60001B6223F
:0E0FE1007830794675829A758312120BC422FD
:0A100000757300758D00758B0022DA
:10100A00C0D0C0E0C0F0C082C0830573C28FD08355
:09101A00D082D0F0D0E0D0D03239
:10102300C0D0C0E0C0F0C082C083E59B30E40F7540
:101033006201758800C282C3E59B92E4F59BD0836D
:09104300D082D0F0D0E0D0D03210
:10104C00758180120FE17582D975830F780A790842
:10105C00120BC4120BCC120F6C120FC6752A007532
:10106C002B0012037F752A3F120339209455E56239
:10107C0070511100752A00752B0112037F752A53CC
:10108C0012033975F1FE75A406C281C2827DF97E08
:10109C00947FB5DFFEDEFCDDFA000075F1FC75A473
:1010AC0004758840D282752A00752B0112037F7556
:1010BC002A301203397DF97E947FB5DFFEDEFCDD2C
:1010CC00FA0000E5627002419685730EE4F50FE4B8
:1010DC00F510E4F511AB0FAA0E7800790085000E1F
:1010EC0085010F850210850311120F48E8250EF8B3
:1010FC00E9350FF9E43510FAE43511FB85000E855E
:10110C00010F850210850311120BDA7C877DC67ED8
:10111C007A75073F12064B7CC37D9B7ED8750745BD
:10112C00120BE285000A85010B85020C85030D7CF0
:10113C00007D007E4875074212064B85000A85012A
:10114C000B85020C85030D752A00752B0112037F8C
:10115C00752A63120339D37C007D007E007507006D
:10116C00A80AA90BAA0CAB0D1205756006400478F1
:10117C000180027800E870024184C37C807D967EF9
:10118C001875074BA80AA90BAA0CAB0D12057540D4
:10119C0004780080027801E870024184D37C007DE1
:1011AC00007E00750700A80AA90BAA0CAB0D12054E
:1011BC007560064004780180027800E86031C37CD9
:1011CC00007D007E7A750744A80AA90BAA0CAB0D0A
:1011DC001205754004780080027801E86011752AC8
:1011EC000C752B0012037F752A71120339416AC3E7
:1011FC007C007D007E7A750744A80AA90BAA0CAB6B
:10120C000D1205755004780080027801E8604FC318
:10121C007C807D967E1875074BA80AA90BAA0CAB8F
:10122C000D1205754004780080027801E8602F7C6F
:10123C00007D007E7A750744A80AA90BAA0CAB0D99
:10124C00120BE285000A85010B85020C85030D75D6
:10125C002A0C752B0012037F752A74120339751230
:10126C0000751301850A14850B15850C16850D1751
:10127C00751801120CCE800F752A00752B01120304
:0E128C007F752A4F120339756200017780FECC
:040FD9000000000014
:040FDD000000000010
:0F129A004D6561737572696E67212020202000F9
:1012A90043617061636974616E63652F20463A001A
:0412B9004F2E4C0068
:0F12BD004469736368617267696E67212020005E
:0112CC000021
:0E12CD00202020202020202020202020200073
:0212DB006E00A3
:0112DD000010
:0212DE00750099
:00000001FF
