:1000000002012E02000000000000000200000000BB
:1000100000000002000000000000000200000000DC
:1000200000000002000000000000000200000000CC
:1000300000000002000000000000000200000000BC
:1000400000000002000000000000000200000000AC
:10005000000000020000000000000002000000009C
:10006000000000020000000000000002000000008C
:0600700000000002000088
:0400760075B28222BB
:07007A0075A40775E24322A3
:1000810075D84053D9BF75D90275DAC275DBC2750F
:10009100DCC275F9C075FA4F75FBFF75E9FF75EBA9
:0B00A100FF75FCFF75EAFF75ECFF2205
:1000AC0074FF5510F9A813A601E5105400F8E511DA
:0C00BC0054FFF9AA017B00A812A6022242
:1000C800750E00750F00850C10850D1175120E75D3
:0D00D800130F11AC850FE9850EEAC2D92285
:0700E5001181117A1176224E
:0800EC00E493F608A3D9F92200
:1000F400750E00750F00850C10850D1175120E75A7
:0D010400130F11AC850FEB850EECC2DA2253
:10011100750E00750F00850C10850D1175120E7589
:0D012100130F11AC850FFB850EFCC2D82218
:10012E00758180750800750900750A00750B01113F
:10013E00E56175750C00750D0011C8750C00750D17
:10014E000011F4750A00C3E50A9406505D750800A7
:10015E00750900C3E5089420E509940050487A011A
:10016E00A909E5080A8005C333C933C9DAF9F87459
:10017E001F28FA740439FB850282850383E493F801
:10018E00E4A393F985000C85010D31117D037ECC1E
:10019E007FE5DFFEDEFCDDFA74012508F50874004C
:1001AE003509F50980AD050A809C618F750C0075C7
:1001BE000D003111750C00750D0011F4750A00C398
:1001CE00E50A9406505D750800750900C3E50894AC
:1001DE0020E509940050487A01A909E5080A80052E
:1001EE00C333C933C9DAF9F8741F28FA740439FB1A
:1001FE00850282850383E493F8E4A393F985000CCA
:10020E0085010D11C87D037ECC7FE5DFFEDEFCDDB2
:10021E00FA74012508F50874003509F50980AD0555
:10022E000A809C618F750C00750D003111750C00E4
:10023E00750D0011C8750A00C3E50A9406505D7568
:10024E000800750900C3E5089420E509940050489C
:10025E007A01A909E5080A8005C333C933C9DAF959
:10026E00F8741F28FA740439FB850282850383E42F
:10027E0093F8E4A393F985000C85010D11F47D0329
:10028E007ECC7FE5DFFEDEFCDDFA74012508F50885
:10029E0074003509F50980AD050A809C618F750AD9
:1002AE0000C3E50A940A40026173750800750900DF
:1002BE00C3E5089420E50994004002616F7A01A914
:1002CE0009E5080A8005C333C933C9DAF9F8741F82
:1002DE0028FA740439FB850282850383E493F8E4DB
:1002EE00A393F985000C85010D31117A01A909E559
:1002FE00080A8005C333C933C9DAF9F874DF28FA5E
:10030E00740339FB850282850383E493F8E4A39397
:10031E00F985000C85010D11C87A01A909E5080AB5
:10032E008005C333C933C9DAF9F8749F28FA740308
:10033E0039FB850282850383E493F8E4A393F98560
:10034E00000C85010D11F47D0D7E6E7FC7DFFEDE84
:10035E00FCDDFA74012508F50874003509F509412C
:10036E00BE050A41AF801AE50B640170022141E51A
:10037E000B6402700221BAE50B6403700241334133
:10038E00AC050BD3E50B94034003750B00213F80A6
:01039E00FE60
:10039F0082ECC4E1DAD4E3C504B566A2398EAC7839
:1003AF00F7614F4AF131171900001719F1314F4A10
:1003BF00F761AC78398E66A204B5E3C5DAD4C4E12F
:1003CF0082ECF9F413FBC3FEFCFFC3FE13FBF9F43D
:1003DF00DAD4C4E182ECF9F413FBC3FEFCFFC3FED5
:1003EF0013FBF9F482ECC4E1DAD4E3C504B566A2D9
:1003FF00398EAC78F7614F4AF13117190000171990
:10040F00F1314F4AF761AC78398E66A204B5E3C576
:10041F0000001719F1314F4AF761AC78398E66A297
:10042F0004B5E3C5DAD4C4E182ECF9F413FBC3FEDF
:10043F00FCFFC3FE13FBF9F482ECC4E1DAD4E3C58D
:10044F0004B566A2398EAC78F7614F4AF1311719AE
:00000001FF
