:1000000002023702000000000000000200000000B1
:1000100000000002000000000000000200000000DC
:1000200000000002000000000000000200000000CC
:1000300000000002000000000000000200000000BC
:1000400000000002000000000000000200000000AC
:10005000000000020000000000000002000000009C
:10006000000000020000000000000002000000008C
:060070000000000202BACC
:10007600750C08D374006480F8E50C648098403AE7
:10008600D281E50B5480600B7E207FD0DFFEDEFC44
:1000960000800A7E107FE7DFFEDEFC0000C2817E64
:1000A600107FE7DFFEDEFC00007801E50B0880022A
:0B00B600C333D8FCF50B150C80B922F9
:0700C10075A88075E680229E
:1000C80075A40275A5E075D40375D5E075E24022E4
:1000D800751008D374006480F8E510648098402295
:1000E800E50F5480F97004C2968002D296C29578C2
:1000F80001E50F088002C333D8FCF50F1510D2951F
:0301080080D12281
:10010B00BD000BB90029E88CF084F8ACF022E4CDEB
:10011B00FF75F008E828F8E933F9ED33FDE99CEDBC
:10012B009F4005FDE99CF908D5F0E9E4C9FC22ECF8
:10013B00FFF5F0E98420D21CF9ACF075F008E82843
:10014B00F8EC33FC40079F5006D5F0F222C39FFC1E
:05015B0008D5F0EA22C6
:0401600075B28222D0
:0701640053D9BF75D9002239
:0A016B007591047592027593FC2251
:10017500C2D5ED30E709B2D5E4C39CFCE49DFDE9A9
:1001850030E715B2D5E4C398F8E499F912010BC329
:10019500E49CFCE49DFD800312010B30D507C3E40C
:0601A50098F8E499F9222C
:1001AB00E50D2462F9E43403FA850182850283E4C8
:1001BB0093F885000F11D8E50E2472F9E43403FA95
:1001CB00850182850283E493F885000F11D8C297CD
:0301DB00D2972296
:0801DE00E493F608A3D9F9220D
:1001E600750914750A00E50854AAF50AD374006463
:1001F60080F8E509648098401AD2817E087FF3DF93
:10020600FEDEFC00C2817E087FF3DFFEDEFC001509
:100216000980D97E027F96DFFEDEFC85080B11760B
:06022600850A0B1176228F
:0B022C003164316B11C8316011C12238
:10023700758180120376512C2094187D037E7D7F73
:1002470059DFFEDEFCDDFA74012530F53074003528
:1002570031F5312093197D037E7D7F59DFFEDEFC6A
:10026700DDFAC3E5309401F530E5319400F531D37B
:10027700E53094C874006480F8E5316480984006DE
:10028700753000753100C3E530940074006480F860
:10029700E531648098500675306375310085300804
:1002A70031E67D077E377FE2DFFEDEFCDDFA0041C7
:0302B7003F80FE87
:1002BA00C000C001C005C007C0D0C0E0C0F0C08205
:1002CA00C08380547CE87D03A830A931317585004C
:1002DA003361387CE87D03A830A9313175A804A9B7
:1002EA00057C647D00317585003380427C647D0025
:1002FA00A830A9313175A804A9057C0A7D00317599
:10030A0085003380297C0A7D00A830A9313175A87F
:10031A0004A9058500338016E53260A8E532640138
:10032A0060B1E532640260C4E532640360D78533A4
:10033A000D85320E31AB0532D3E532940340037595
:10034A00320053917FD083D082D0F0D0E0D0D0D089
:08035A0007D005D001D00032EC
:0E0376007830790475826E7583031201DE22E1
:0C036200C0F9A4B0999282F880907FBF8F
:02036E0000008D
:01037000008C
:01037100008B
:04037200F7FBFDFE9A
:00000001FF
