:100000000204C7020000000000000002000000001F
:1000100000000002000000000000000200000000DC
:1000200000000002000000000000000200000000CC
:1000300000000002000000000000000200000000BC
:1000400000000002000000000000000200000000AC
:10005000000000020000000000000002000000009C
:10006000000000020000000000000002000000008C
:0600700000000002051073
:0D00760075BB0075BA1175BC5875E8802285
:0700830053D9BF75D900221B
:04008A0075E3822276
:07008E0075A88075E68022D1
:100095003392D530D5031200C0EB334010E833F866
:1000A500E933F9EA33FAEB33FBD5F0ED22E5F02439
:1000B5007EA2D513CB92E7CAC9F822C3E498F8E427
:0900C50099F9E49AFAE49BFB228C
:1000CE0075F1FE75A5E075D40175D5E075E2402297
:1000DE00751308D374006480F8E513648098402289
:1000EE00E5125480F97004C2968002D296C29578B9
:1000FE0001E512088002C333D8FCF5121513D29510
:03010E0080D1227B
:10011100750C00750D0085BE0CE4F50DA90C780079
:1001210085000C85010DE5BD4200E4420185000C0E
:0401310085010D2215
:0A0135007591047592027593FC2287
:04013F0075D10A224A
:0F0143001183313511CE118A118E1176313F2281
:08015200E493F608A3D9F92299
:10015A00E50E24D1F9E43405FA850182850283E4A7
:10016A0093F8850011E510600353117FC29785113A
:10017A001211DEE50F24E2F9E43405FA85018285DD
:0D018A000283E493F885001211DED2972263
:10019700BD000BB90029E88CF084F8ACF022E4CD5F
:1001A700FF75F008E828F8E933F9ED33FDE99CED30
:1001B7009F4005FDE99CF908D5F0E9E4C9FC22EC6C
:1001C700FFF5F0E98420D21CF9ACF075F008E828B7
:1001D700F8EC33FC40079F5006D5F0F222C39FFC92
:0501E70008D5F0EA223A
:1001EC00EAD2E7CA33EB3392D524814006E4F8F91E
:1001FC00FAFB22FBE4C8C9CACB24E0501174FF807F
:10020C00EDC3CB13CBCA13CAC913C9C813C8047026
:10021C00F030D5DEC3E498F8E499F9E49AFAE49B5B
:02022C00FB22B3
:10022E00750900750A00750B10E508541FF5BB7EA5
:10023E00107FE7DFFEDEFC0000D374006480F8E57B
:10024E000B6480984019C2EDD2EC20ED0280FB3198
:10025E0011E50928F509E50A39F50A150B80DA7A50
:10026E0004E50AA8090A8005C313C813C8DAF9F908
:07027E0085000985010A2239
:0702850075F020E411952241
:10028C00800302036CEB5A046005EF5E04700302FA
:10029C00036212032D5F0460F6EB4F60F2EB700407
:1002AC00FAF9F822CF60DB2481CF5009C39F60029A
:1002BC0050060203699F50CAF582EE2E4C4D700514
:1002CC00AC8202035875F0007B1A7F80C3E89CE96E
:1002DC009DEA9E400DC3E89CF8E99DF9EA9EFAEF71
:1002EC0042F0DB22ABF0D0E0F8D0E0F9D0E0FAAC91
:1002FC008220E7101CEC60BAEB2BFBE833F8E933F7
:10030C00F9EA33FA8032EF03FF30E705C0F075F0FD
:10031C0000E828F8E933F9EA33FA40B930E7C3804A
:10032C00ABEED2E7CE33EF33FF92D5EAD2E7CA3346
:10033C00EB33FB5002B2D522EB30E71008B8000CBF
:10034C0009B900080ABA00040CEC60ECA2D5EC1355
:10035C00FBEA92E7FA2274FFFBFAF9F822E480F840
:0C036C00A2D574FF13FB7A80E480EF221E
:10037800EB4A6011EF4E7017EA33EB3304600DE47B
:10038800FBF8F9FA22EE33EF330470F80204B112E5
:10039800047C5F046009E4CB248150062F500902D5
:1003A80004BB2F40030204B8C0E0EC4D7044BE808B
:1003B80006D0E0FC0204A7E849701CBA8008ECF8F3
:1003C800EDF9EEFA80EBEE8AF0A4F9E5F0020461AB
:1003D800EECAFEEDF9ECF8E88EF0A4FBE5F0C98E64
:1003E800F0A429F8E435F0CA8EF0A42AF9E435F02F
:1003F8008067E8497005BA80D780C3E88CF0A4AB61
:10040800F0E98CF0A42BFBE435F0FFE88DF0A42B89
:10041800E5F03FFBE433CC8AF0A42BFBE5F03CFF8E
:10042800E98DF0A42BFBE5F03FFFE433C88EF0A480
:100438002BFBE5F03FC83400C98EF0A428F8E5F09E
:1004480039F9E433CE8AF0A429F9E5F03ECA8DF0F3
:10045800A428F8E5F039F9E43AFA33D0E0FC50067C
:100468000CBC000E804DEB2BFBE833F8E933F9EABE
:1004780033FA8017EED2E7CE33EF33FF92D5EAD2C4
:10048800E7CA33EB33FB5002B2D522EB30E7100852
:10049800B8000C09B900080ABA00040CEC6014A2F0
:1004A800D5EC13FBEA92E7FA2274FFFBFAF9F8227B
:0F04B800E480F8A2D574FF13FB7A80E480EF2272
:1004C7007581801205E63143750800512E51857CF0
:1004D700007D407E4E75074571787C007DC07E7F2C
:1004E700750744518C7C9A7D997E9975073E518C8E
:1004F70031EC8500308501317D077E377FE2DFFEF5
:09050700DEFCDDFA0080C180FE7B
:10051000C000C001C002C004C005C007C0D0C0E018
:10052000C0F0C082C083A1887CE87D03A830A931D7
:100530003197850033753200A1A07CE87D03A83097
:10054000A9313197A804A9057C647D003197850005
:1005500033753201804A7C647D00A830A93131971F
:10056000A804A9057C0A7D00319785003375320007
:10057000802E7C0A7D00A830A9313197A804A905F6
:100580008500337532008018E5347002A128E53407
:10059000640160A6E534640260BCE534640360D2A3
:1005A00085330E85340F853210315A0534D3E53446
:1005B0009403400375340053917FD083D082D0F0F0
:1005C000D0E0D0D0D007D005D004D002D001D000E8
:0105D00032F8
:0E05E600783079057582DD7583051201522289
:0C05D100C0F9A4B0999282F880907FBF1E
:0205DD0000001C
:0105DF00001B
:0105E000001A
:0105E1000019
:0405E200F7FBFDFE28
:00000001FF
