:1000000002097202091C000000000002000000004A
:1000100000000002000000000000000200000000DC
:1000200000000002000000000000000200000000CC
:1000300000000002000000000000000200000000BC
:1000400000000002000000000000000200000000AC
:10005000000000020000000000000002000000009C
:10006000000000020000000000000002000000008C
:0600700000000002000088
:1000760053907F43A54043D440800A5390BF800DE0
:100086004390408008E52264FF60F080F37F51DFF3
:0E009600FE004390807F51DFFE0053907F22DA
:1000A40075230843A54043D44053907FD3E523945C
:1000B400004040E5225480FA7807EA088002C3131E
:1000C400D8FCF9600543904080035390BF7801E564
:1000D40022088002C333D8FCF5227F51DFFE00439F
:1000E40090807F51DFFE0053907F7F51DFFE00152B
:0400F4002380B9228A
:1000F80043A54043D4404390404390807FA3DFFE14
:0B0108005390BF7FA3DFFE53907F22C7
:1001130043A54043D4405390BF53907F7FA3DFFE5A
:0B0123004390404390807FA3DFFE224A
:10012E0011F875224E11A47522FF11768521221128
:09013E00A47522FF117631132291
:10014700E5084404F8850008850021312E7E107FDC
:10015700E7DFFEDEFC0000E50854F9F885000885B6
:0F0167000021312E7E107FE7DFFEDEFC0000223C
:10017600E52054F0F9E508540FF8850008E9420037
:10018600850008850021312E3147E520540FFA7885
:1001960004EA088002C333D8FCF9E508540FF88551
:1001A6000008E94200850008850021312E314722EA
:1001B600800A5308F4800F430801800AE51F60F2A5
:1001C600E51F640160F1800A430808800F5308F7B1
:1001D600800AE509640160F0E50960F185082131CE
:1001E6002E851E2031767E107FE7DFFEDEFC0000C6
:0101F60022E6
:1001F700803C75F008758200E828F8E933F9CA33BE
:10020700CACB33CBC58233C5829CEA9DEB9EE58280
:100217009F400CF582E99CF9EA9DFAEB9EFB08D515
:10022700F0D6E4C9FCE4CAFDE4CBFEAF8222EF605E
:100237000280BFEE6002805BED6002802DEB8CF0E8
:1002470084C8C9CAFBE5F0CCFE7F18E828F8E93373
:10025700F9EA33FAEB33FBEC33FC10D7039E400487
:10026700EC9EFC08DFE5E4FEFD227F18E828F8E9AC
:1002770033F9EA33FAEB33FBCE33CE10D7059CEED6
:100287009D4007EB9CFBEE9DFE08DFE0E4CEFDE41E
:10029700CBFC2275F010E828F8E933F9EA33FACBFA
:1002A70033CBCF33CF10D7079CEB9DEF9E400AEAA5
:1002B7009CFAEB9DFBEF9EFF08D5F0DAE4CAFCE45D
:0602C700CBFDE4CFFE2296
:1002CD0075E24043A54043D44043A58043D4807E8E
:0E02DD00027F96DFFEDEFC43904043908022BD
:1002EB00C3E51D9420400FD3E51D947F5008851D59
:0702FB001E751F0131B62240
:10030200A81A861D51EB051AA81A8601E970F12276
:10031200C2D5EF30E70FB2D5E4C39CFCE49DFDE407
:100322009EFEE49FFFEB30E717B2D512034812019D
:10033200F7E4C39CFCE49DFDE49EFEE49FFF800382
:100342001201F730D50DE4C398F8E499F9E49AFA6A
:05035200E49BFB2222E8
:10035700E51B700D7480451AF51E751F0031B680B8
:0D0367000B74C0451AF51E751F0031B6223B
:10037400751C00851A35D3E535951B4002815278EA
:1003840001E51C088002C333D8FCF51C7901E5356E
:10039400098002C333D9FCF8743B28F88601088627
:1003A40002C3E99408EA940740237901E5350980FA
:1003B40002C333D9FCF8743B28F88601088602D3BB
:1003C400E9948CEA940A5005431C01814E7901E5B5
:1003D40035098002C333D9FCF8743B28F886010838
:1003E4008602C3E99484EA940340207901E535093F
:1003F4008002C333D9FCF8743B28F88601088602CE
:10040400D3E99478EA94055002803F7901E53509EF
:100414008002C333D9FCF8743B28F88601088602AD
:10042400C3E99430EA942A40217901E53509800230
:10043400C333D9FCF8743B28F88601088602D3E953
:100444009480EA943E500378FF220535617AA81C13
:010454002285
:0404550075B28222D8
:0F04590051CD7D027E3F7F2BDFFEDEFCDDFA22E0
:0704680075A88175E4002274
:07046F0053D9BF75D900222B
:0D04760075A5C075D40175D5C075E2402292
:070483007588017589012253
:10048A007D067E987FCBDFFEDEFCDDFA0000753547
:10049A0000C3E535942150197901E535098002C375
:1004AA0033D9FCF8743B28F87600087600053580C5
:0F04BA00E0120887C3E50A92E0F50A75350022C3
:0804C900E493F608A3D9F9221F
:1004D100752700752800858C27E4F528A927780061
:1004E100850027850128E58A4200E442018500272D
:0404F1008501282237
:1004F5007513207514207515207516207517207530
:100505001820751900C3E50F9400E5109400E51156
:10051500940074006480F8E512648098501E751389
:100525002DC37400950FF50F74009510F510740028
:100535009511F51174009512F5128003751320D3EA
:10054500E50F940FE5109427E5119400740064807D
:10055500F8E5126480985002C11B7C107D277E004F
:10056500750700A80FA910AA11AB127112743028D3
:10057500F5147C107D277E00750700A80FA910AA29
:1005850011AB127112A804A905AA06AB077CE87D78
:10059500037E007507007112743028F5157CE87D1F
:1005A500037E00750700A80FA910AA11AB127112DE
:1005B500A804A905AA06AB077C647D007E00750723
:1005C500007112743028F5167C647D007E00750775
:1005D50000A80FA910AA11AB127112A804A905AAA7
:1005E50006AB077C0A7D007E00750700711274302A
:1005F50028F5177C0A7D007E00750700A80FA91055
:10060500AA11AB127112A804A905AA06AB0774308A
:1006150028F518020867D3E50F94E7E5109403E57C
:1006250011940074006480F8E5126480985002C14A
:10063500F8D3E50F940FE5109427E51194007400A5
:100645006480F8E5126480984002C1F87C107D272B
:100655007E00750700A80FA910AA11AB127112A888
:1006650004A905AA06AB077CE87D037E0075070093
:100675007112743028F5147CE87D037E007507003F
:10068500A80FA910AA11AB127112A804A905AA06F0
:10069500AB077C647D007E007507007112743028FD
:1006A500F5157C647D007E00750700A80FA910AACA
:1006B50011AB127112A804A905AA06AB077C0A7D25
:1006C500007E007507007112743028F5167C0A7DCE
:1006D500007E00750700A80FA910AA11AB127112B0
:1006E500A804A905AA06AB07743028F517751820C4
:1006F500020867D3E50F9463E5109400E5119400B3
:1007050074006480F8E5126480985002E1ADD3E589
:100715000F94E7E5109403E511940074006480F8E4
:10072500E5126480984002E1AD7CE87D037E0075AA
:100735000700A80FA910AA11AB127112A804A905E8
:10074500AA06AB077C647D007E00750700711274F4
:100755003028F5147C647D007E00750700A80FA97C
:1007650010AA11AB127112A804A905AA06AB077C41
:100775000A7D007E007507007112743028F5157C1E
:100785000A7D007E00750700A80FA910AA11AB12FB
:100795007112A804A905AA06AB07743028F51675C9
:1007A5001720751820020867D3E50F9409E5109402
:1007B50000E511940074006480F8E5126480985097
:1007C5000302083AD3E50F9463E5109400E511940C
:1007D5000074006480F8E51264809850587C647D4C
:1007E500007E00750700A80FA910AA11AB1271129F
:1007F500A804A905AA06AB077C0A7D007E0075073B
:1008050000120312743028F5147C0A7D007E0075F1
:100815000700A80FA910AA11AB12120312A804A968
:1008250005AA06AB07743028F5157516207517202F
:10083500751820802D7C0A7D007E00750700A80FA5
:10084500A910AA11AB12120312A804A905AA06AB96
:1008550007743028F5147515207516207517207541
:100865001820850D1A850E1B120357751A131203CE
:0208750002225D
:1008770012046F12048312047612045512046822BC
:07088700758C00758A002248
:10088E001204597EA07F15DFFEDEFC000075090103
:10089E0075080475210412012E7EA07F15DFFEDE81
:1008AE00FC0000751E33751F001201B6751E3275E1
:1008BE001F001201B6751E28751F001201B6751E97
:1008CE000C751F001201B6751E01751F001201B6C0
:0A08DE00751E06751F001201B622F8
:1008E800751E01751F001201B6751E02751F0012D4
:0308F80001B62224
:1008FB00751A02751B0912037485000FA80DA60F3C
:10090B00751A12751B1912037485000FA80EA60F0A
:01091B0022B9
:10091C00C000C001C0D0C0E0C0F0C082C08379016B
:10092C00E535098002C333D9FCF8743B28F88500FF
:10093C00261204D1850024850125A826A62408A604
:10094C00250535D28CC3E53594214009D3E50A92AF
:10095C00E0F50AC28C1187D083D082D0F0D0E0D0E1
:06096C00D0D001D00032E2
:100972007581801209EB750B00750C001177118ED1
:1009820011E8751A00751B00120357751A36120307
:1009920002751A00751B01120357751A30120302F1
:1009A200E50A30E035750D0B750E0C11FB750D0C5B
:1009B200750E00850B0FE4F510E4F511E4F5121243
:1009C20004F5750D0C750E01850C0FE4F510E4F5B8
:0E09D20011E4F5121204F512048A80C480FEAE
:0E09EB007830790B7582E07583091204C922F9
:0509E000434D443A0004
:0109E5000011
:0509E6004144523A00FB
:00000001FF
