:100000000200940200000000000000020000000056
:1000100000000002000000000000000200000000DC
:1000200000000002000000000000000200000000CC
:1000300000000002000000000000000200000000BC
:1000400000000002000000000000000200000000AC
:10005000000000020000000000000002000000009C
:10006000000000020000000000000002000000008C
:0600700000000002000088
:0700760053D9BF75D9002228
:0A007D0075A50375D51375E2402246
:050087001176117D223D
:08008C00E493F608A3D9F92260
:100094007581807508001187D290C29120940E7DDD
:1000A4000D7E6E7FC7DFFEDEFCDDFA050880197564
:1000B400B283802C75B282802775B281802275B29A
:1000C40080801D7508008018E50860E3E508640178
:1000D40060E2E508640260E1E508640360E080E34F
:1000E400A290B39290A291B392917D0D7E6E7FC740
:0A00F400DFFEDEFCDDFA80A480FED2
:00000001FF
