:100000000202B9020000000000000002000000002F
:1000100000000002000000000000000200000000DC
:1000200000000002000000000000000200000000CC
:1000300000000002000000000000000200000000BC
:1000400000000002000000000000000200000000AC
:10005000000000020000000000000002000000009C
:10006000000000020000000000000002000000008C
:060070000000000202CDB9
:0700760075A88075E68022E9
:08007D00E493F608A3D9F9226F
:10008500EC600FE8C333F8E933F9EA33FAEB33FBF5
:03009500DCF12279
:10009800751408D374006480F8E5146480984022CD
:1000A800E5135480F97004C2968002D296C29578FE
:1000B80001E513088002C333D8FCF5131514D29553
:0300C80080D122C2
:1000CB00BD000BB90029E88CF084F8ACF022E4CD2C
:1000DB00FF75F008E828F8E933F9ED33FDE99CEDFD
:1000EB009F4005FDE99CF908D5F0E9E4C9FC22EC39
:1000FB00FFF5F0E98420D21CF9ACF075F008E82884
:10010B00F8EC33FC40079F5006D5F0F222C39FFC5E
:05011B0008D5F0EA2206
:1001200075100020800280FB30800905107F28DFD9
:10013000FE0080F4D3E5109419400AC3E510944BF7
:100140005003780922D3E51094AF400AC3E5109418
:10015000E15003780122D3E510944B400AC3E51027
:0A016000947D5003780022780622F7
:04016A0075B28222C6
:07016E0053D9BF75D900222F
:0A0175007591047592027593FC2247
:10017F0075A40275A5E075D40375D5E075E240222C
:10018F00E5112479F9E43403FA850182850283E4C9
:10019F0093F88500131198E5122491F9E43403FACA
:1001AF00850182850283E493F88500131198C29725
:0301BF00D29722B2
:0B01C200316E3175317F316A117622F9
:1001CD00C2D5ED30E709B2D5E4C39CFCE49DFDE951
:1001DD0030E715B2D5E4C398F8E499F91200CBC312
:1001ED00E49CFCE49DFD80031200CB30D507C3E4F5
:0601FD0098F8E499F922D4
:1002030075828575830378087908117D3120E86448
:1002130009600280F73120850008E508640970074A
:10022300312085000880F3C3E509940F50528019EB
:10023300430A01430B00430C00430D008021801F40
:1002430078FF79FF7AFF7BFF22E508640160E1E52F
:100253000860EBE508640960E7E508640660E1050A
:10026300097C01A80AA90BAA0CAB0D118585000A0C
:1002730085010B85020C85030D312085000880A7BD
:10028300A80BA90CAA0D7B0085000E74FF550AF577
:100293000F7E407FA1DFFEDEFC0000E50E54AAF9CD
:1002A300650F7009A80EE4F9E4FAE4FB2278FF79FC
:0602B300FF7AFF7BFF2231
:1002B90075818012039531C2510385003085013162
:0402C90080F680FE3D
:1002CD00C000C001C002C004C007C0D0C0E0C0F073
:1002DD00C082C08380547CE87D03A830A93131CD24
:1002ED00850033614D7CE87D03A830A93131CDA85F
:1002FD0004A9057C647D0031CD85003380427C648A
:10030D007D00A830A93131CDA804A9057C0A7D0056
:10031D0031CD85003380297C0A7D00A830A931318B
:10032D00CDA804A9058500338016E53260A8E53215
:10033D00640160B1E532640260C4E532640360D7E4
:10034D00853311853212318F0532D3E53294034056
:10035D000375320053917FD083D082D0F0D0E0D09E
:0C036D00D0D007D004D002D001D0003264
:0E0395007830790475828D75830312007D2205
:0C037900C0F9A4B0999282F880907FBF78
:010385000077
:010386000076
:040387000000000072
:01038B000071
:01038C000070
:02038D0000006E
:01038F00006D
:01039000006C
:04039100F7FBFDFE7B
:00000001FF
