:10000000020EFF02000000000000000200000000DD
:1000100000000002000000000000000200000000DC
:1000200000000002000000000000000200000000CC
:1000300000000002000000000000000200000000BC
:1000400000000002000000000000000200000000AC
:10005000000000020000000000000002000000009C
:10006000000000020000000000000002000000008C
:06007000000000020E6317
:06007600E5C054FEF82273
:10007C00852FC230C502C2C5C2C020C00280FBA2FF
:05008C00C1E433F8227D
:1000910074F8CF6480CFCB6480CBF582047002808A
:1000A10043C3E89CF5F0E99D42F0EA9E42F0EB9FE4
:1000B10045F060305018E5825CFCE582F4285582F9
:1000C100F8502109B9001D0ABA00190B8016E58202
:1000D10058F8E582F42C5582FC50090DBD00050E3F
:1000E100BE00010FC3E89CF5F0E99D42F0EA9E4293
:1000F100F0EB9F45F06007CF4B20E701B3EF2222E1
:05010100D2C4C2C022BF
:10010600800302022DEE33EF3360110460F4EA330C
:10011600EB337009EFFBEEFAEDF9ECF8220460E23E
:10012600D3EC98ED99EE9AEFC2E78BF0C2F795F013
:10013600400CEFCBFFEECAFEEDC9FDECC8FC120188
:10014600F885D0F05F04700320D5B7EF0470075030
:1001560002B2D502023792D5EB0460F7E4CBC0E0D9
:10016600C39FFF603B94186008400DD0E0FC02027C
:100176000FE4FCFDCEFB8028EF30E406E4CEFCE481
:10018600CDFBEF30E305E4CECDCCFBEF540760109A
:10019600FFC3EE13FEED13FDEC13FCEB13FBDFF1D7
:1001A60030F52DC3E49BFBE89CF8E99DF9EA9EFA3D
:1001B600D0E0FCE8494A4B701122DC028070EB2B40
:1001C600FBE833F8E933F9EA33FAEA30E7EC803949
:1001D600E82CF8E93DF9EA3EFAD0E0FC50120CBCF6
:1001E6000002804DEA13FAE913F9E813F8EB13FB62
:1001F6008017EED2E7CE33EF33FF92D5EAD2E7CAC5
:1002060033EB33FB5002B2D522EB30E71008B800CF
:100216000C09B900080ABA00040CEC6014A2D5EC6B
:1002260013FBEA92E7FA2274FFFBFAF9F822E4805C
:0D023600F8A2D574FF13FB7A80E480EF225C
:10024300EB4A6011EF4E7017EA33EB3304600DE4B1
:10025300FBF8F9FA22EE33EF330470F802037C1251
:1002630003475F046009E4CB248150062F50090241
:1002730003862F4003020383C0E0EC4D7044BE802D
:1002830006D0E0FC020372E849701CBA8008ECF85F
:10029300EDF9EEFA80EBEE8AF0A4F9E5F002032C17
:1002A300EECAFEEDF9ECF8E88EF0A4FBE5F0C98E9A
:1002B300F0A429F8E435F0CA8EF0A42AF9E435F065
:1002C3008067E8497005BA80D780C3E88CF0A4AB97
:1002D300F0E98CF0A42BFBE435F0FFE88DF0A42BC0
:1002E300E5F03FFBE433CC8AF0A42BFBE5F03CFFC5
:1002F300E98DF0A42BFBE5F03FFFE433C88EF0A4B7
:100303002BFBE5F03FC83400C98EF0A428F8E5F0D4
:1003130039F9E433CE8AF0A429F9E5F03ECA8DF029
:10032300A428F8E5F039F9E43AFA33D0E0FC5006B2
:100333000CBC000E804DEB2BFBE833F8E933F9EAF4
:1003430033FA8017EED2E7CE33EF33FF92D5EAD2FA
:10035300E7CA33EB33FB5002B2D522EB30E7100888
:10036300B8000C09B900080ABA00040CEC6014A226
:10037300D5EC13FBEA92E7FA2274FFFBFAF9F822B1
:0F038300E480F8A2D574FF13FB7A80E480EF22A8
:10039200D2C520C00280FB1176E864E070047800C8
:0503A200800278012239
:1003A7003392D530D5031203D2EB334010E833F83C
:1003B700E933F9EA33FAEB33FBD5F0ED22E5F02424
:1003C7007EA2D513CB92E7CAC9F822C3E498F8E412
:0903D70099F9E49AFAE49BFB2277
:1003E0007192752F3C117C85292F117C852A2F1144
:0403F0007C31012239
:1003F4007A02A945E5440A8005C333C933C9DAF949
:10040400F8E54228FCE54339FD850482850583E44B
:1004140093F8E4A393F9E4A393FAE4A393FB85008C
:100424002985012A85022B85032CE5444545700264
:100434008060A83EA93FAA40AB41AC29AD2AAE2BAF
:10044400AF2C5143C3E5449401F544E5459400F5CC
:10045400457E02AD45E5440E8005C333CD33CDDE84
:10046400F9FCE5422CF52DE5433DF52E852D8285DD
:100474002E83E493FCE4A393FDE4A393FEE4A3930B
:10048400F507310685002985012A85022B85032C71
:0B049400812EA829A92AAA2BAB2C223C
:08049F00EF6480FF1201062248
:1004A700C37C007D007E00750700A829A92AAA2B16
:1004B700AB2C11914004780080027801E86015E5C3
:1004C700296400F8E52A6400F9E52B6400FAE52CB5
:0D04D7006480FB22A829A92AAA2BAB2C22A5
:1004E40080030205C4EB5A046005EF5E0470030246
:1004F40005BA1205855F0460F6EB4F60F2EB7004F9
:10050400FAF9F822CF60DB2481CF5009C39F60023F
:1005140050060205C19F50CAF582EE2E4C4D70055F
:10052400AC820205B075F0007B1A7F80C3E89CE9B9
:100534009DEA9E400DC3E89CF8E99DF9EA9EFAEF16
:1005440042F0DB22ABF0D0E0F8D0E0F9D0E0FAAC36
:100554008220E7101CEC60BAEB2BFBE833F8E9339C
:10056400F9EA33FA8032EF03FF30E705C0F075F0A3
:1005740000E828F8E933F9EA33FA40B930E7C380F0
:10058400ABEED2E7CE33EF33FF92D5EAD2E7CA33EC
:10059400EB33FB5002B2D522EB30E71008B8000C65
:1005A40009B900080ABA00040CEC60ECA2D5EC13FB
:1005B400FBEA92E7FA2274FFFBFAF9F822E480F8E6
:0C05C400A2D574FF13FB7A80E480EF22C4
:1005D000C2C020C00280FB85C21DE51C7004C2C1E0
:0905E0008004D2C1C2C0A81D2292
:1005E900751E00751F00851C1EE4F51FA91E7800E5
:1005F90085001E85011FE51D4200E4420185001E9C
:0406090085011F2226
:10060D00851C29851D2A851E2B851F2C91A78500EC
:10061D00218501228502238503247C007D007E0037
:10062D0075070011916004780080027801E8600977
:10063D00780079007A007B0022D37C007D007E80DB
:10064D0075073FA821A922AA23AB2411916006406A
:10065D0004780180027800850020E8601EAC21AD91
:10066D0022AE23AF24780079007A807B3F91E48518
:10067D000021850122850223850324A821A922AA10
:10068D0023AB24AC21AD22AE23AF245143850025ED
:10069D0085012685022785032885003E85013F8536
:1006AD00024085034175422275430F75440575451A
:1006BD000071F4AC21AD22AE23AF2451438500214E
:1006CD0085012285022385032485253E85263F85C8
:1006DD00274085284175423A75430F754404754589
:1006ED000071F4AC00AD01AE02AF03A821A922AA9E
:1006FD0023AB2491E4850021850122850223850306
:10070D0024E520601EAC21AD22AE23AF2478DB7929
:10071D000F7AC97B3F919F85002185012285022398
:10072D00850324C37C007D007E00750700A81CA9ED
:10073D001DAA1EAB1F11914004780080027801E8BC
:10074D006016E5216400F8E5226400F9E5236400F4
:10075D00FAE5246480FB8008A821A922AA23AB24F2
:0D076D0085002185012285022385032422B9
:10077A00EAD2E7CA33EB3392D524814006E4F8F98A
:10078A00FAFB22FBE4C8C9CACB24E0501174FF80EB
:10079A00EDC3CB13CBCA13CAC913C9C813C8047093
:1007AA00F030D5DEC3E498F8E499F9E49AFAE49BC8
:0207BA00FB2220
:1007BC007520007CAE7D477E6175073FA81CA91D86
:1007CC00AA1EAB1F11916004780080027801E860CA
:1007DC00127520007538487539E1753A3A753B3F0A
:1007EC0002093D7C667D667EA675073FA81CA91D87
:1007FC00AA1EAB1F1200916004780080027801E8F9
:10080C00601175200175381F753985753A6B753B0C
:10081C003F213D7C337D337EF375073FA81CA91D1A
:10082C00AA1EAB1F1200916004780080027801E8C8
:10083C0060117520027538F6753928753A9C753B30
:10084C003F213D7C007D007E20750740A81CA91D22
:10085C00AA1EAB1F1200916004780080027801E898
:10086C00601175200375385C75398F753AC2753B0C
:10087C003F213D7C007D007E80750740A81CA91D92
:10088C00AA1EAB1F1200916004780080027801E868
:10089C0060117520047538AE753947753A11753B82
:1008AC0040213D7C667D667E96750740A81CA91D7F
:1008BC00AA1EAB1F1200916004780080027801E838
:1008CC00601175200575380A7539D7753A23753B53
:1008DC0040805E7C337D337EB3750740A81CA91D18
:1008EC00AA1EAB1F1200916004780080027801E808
:1008FC0060117520067538857539EB753A41753B75
:10090C0040802E7C9A7D997E01750741A81CA91DFB
:10091C00AA1EAB1F1200916004780080027801E8D7
:10092C00600F752007753833753933753A8B753B05
:10093C00407905E520098002C333D9FCF8850020F5
:0A094C0075290185002A1203E0223C
:10095600C2C5C2C4C2C0D2C520C00280FB12007686
:0C096600E864E070047800800278012250
:10097200AB01AA007900780075F010EB1203A722F0
:1009820043E10443E240758902758E0475C1C07566
:03099200881022A8
:0D09950075A5E075D5E075E10475E240221E
:0709A20053D9BF75D90022F3
:0A09A9007591047592027593FC220B
:1009B300754908D374006480F8E54964809840223F
:1009C300E5485480F97004C2968002D296C29578A5
:1009D30001E548088002C333D8FCF5481549D29590
:0309E30080D1229E
:1009E600BD000BB90029E88CF084F8ACF022E4CD08
:1009F600FF75F008E828F8E933F9ED33FDE99CEDD9
:100A06009F4005FDE99CF908D5F0E9E4C9FC22EC14
:100A1600FFF5F0E98420D21CF9ACF075F008E8285F
:100A2600F8EC33FC40079F5006D5F0F222C39FFC3A
:050A360008D5F0EA22E2
:040A3B0075C18022DF
:100A3F00850C29850D2A850E2B850F2C1204A78571
:100A4F00001885011985021A85031B851029851148
:100A5F002A85122B85132C1204A7C3AC00AD01AE4F
:100A6F0002AF03A818A919AA1AAB1B1200915004C0
:100A7F00780080027801E870026145AC0CAD0DAED4
:100A8F000EAF0FA810A911AA12AB131204E4850020
:100A9F001C85011D85021E85031F12060D8500147E
:100AAF00850115850216850317C37C007D007E0026
:100ABF00750700A80CA90DAA0EAB0F1200914004E8
:100ACF00780080027801E870028062C37C007D00AC
:100ADF007E00750700A810A911AA12AB131200917E
:100AEF005004780080027801E86022A814A915AAA2
:100AFF0016AB177CDB7D0F7E49750740120106850B
:100B0F00001485011585021685031780207CDB7D77
:100B1F000F7E49750740A814A915AA16AB17120422
:100B2F009F850014850115850216850317A814A942
:100B3F0015AA16AB1722AC10AD11AE12AF13A80C3D
:100B4F00A90DAA0EAB0F1204E485001C85011D85AB
:100B5F00021E85031F12060DE86400F514E96400F8
:100B6F00F515EA6400F516EB6480F517C37C007D7C
:100B7F00007E00750700A810A911AA12AB1312006E
:100B8F00914004780080027801E860227CDB7D0FC1
:100B9F007EC975073FA814A915AA16AB1712049F93
:100BAF008500148501158502168503178020A8146A
:100BBF00A915AA16AB177CDB7D0F7EC975073F12EF
:100BCF000106850014850115850216850317A814E3
:070BDF00A915AA16AB1722AD
:100BE600A830A9313172AC38AD39AE3AAF3B1202FA
:100BF6004312077A850030850131A834A935317250
:100C0600AC38AD39AE3AAF3B12024312077A8500D3
:100C160034850135A83CA93D3172AC38AD39AE3AC0
:0F0C2600AF3B12024312077A85003C85013D2245
:070C350075A88075E680221E
:040C3C0075B28222E9
:100C4000750C00120392752F3C12007C752F031255
:100C5000007C3156752F3D12007C751C011205D0A9
:100C600085000C751C011205D0850C1C85001D1219
:100C700005E9850030850131751C011205D085001C
:100C80000C751C011205D0850C1C85001D1205E990
:100C9000850034850135751C011205D085000C7561
:100CA0001C001205D0850C1C85001D1205E985006D
:080CB0003C85013D1201012207
:100CB800538EFC438E08758D343182752900752A50
:100CC800701203E0752901752AA01203E075290244
:100CD800752A001203E0751C66751D66751EA675DB
:060CE8001F3F1207BC22B1
:100CEE00C2D5ED30E709B2D5E4C39CFCE49DFDE925
:100CFE0030E715B2D5E4C398F8E499F91209E6C3C2
:100D0E00E49CFCE49DFD80031209E630D507C3E4A4
:060D1E0098F8E499F922A7
:100D2400C297E546245CF9E4340FFA850182850212
:100D340083E493F885004831B3E5472469F9E43442
:100D44000FFA850182850283E493F885004831B364
:030D5400D2972211
:0F0D570031A2513B31A93195913C913591B82290
:100D6600750800750900750A00750B00914071E65B
:100D7600A83CA93D317285000C85010D85020E85C2
:100D8600030FA830A9313172850010850111850243
:100D960012850313513F85000885010985020A85DE
:100DA600030B7C747D467E047507BF120106850021
:100DB6000885010985020A85030BC37C007D007E38
:100DC600007507001200914004780080027801E85F
:100DD6006020A808A909AA0AAB0B7C877D167EC9E4
:100DE60075074012010685000885010985020A85F6
:100DF600030BD37C877D167EC9750740A808A90911
:100E0600AA0AAB0B120091600640047801800278B2
:100E160000E860207C877D167EC9750740A808A972
:100E260009AA0AAB0B12049F8500088501098502F1
:100E36000A85030BA808A909AA0AAB0B7C467D27DD
:100E46007E65750742120243850008850109850201
:050E56000A85030B22D8
:080E5B00E493F608A3D9F92283
:100E6300C000C001C002C004C005C007C0D0C0E0BC
:100E7300C0F0C082C08380407C647D00A836A9375F
:100E830091EE85003380477C647D00A836A93791B5
:100E9300EEA804A9057C0A7D0091EE850033802E1F
:100EA3007C0A7D00A836A93791EEA804A905850020
:100EB30033801B75330C8016E53260BCE532640168
:100EC30060C5E532640260D8E532640360E58533CA
:100ED30046853247B1240532D3E532940340037586
:100EE300320053917FD083D082D0F0D0E0D0D0D0E5
:0C0EF30007D005D004D002D001D000329E
:100EFF00758180120F6DB157B16612077A85003672
:100F0F008501377D0D7E6E7FC7DFFEDEFCDDFA804B
:030F1F00E780FE6A
:0E0F6D007830790E75824E75830F120E5B225E
:100F2200063C04427D9F6A425C900142604DBB4098
:080F320051EC473EDE8D1FBBB0
:100F3A00063C0442C0598B4274044442F99B4F4117
:040F4A000000803FE4
:020F4E000000A1
:010F500000A0
:010F5100009F
:020F520000009D
:020F540000009B
:040F56000000803FD8
:020F5A00000095
:0D0F5C00C0F9A4B0999282F880907FBF9CEC
:040F6900F7FBFDFE97
:00000001FF
