:100000000201C40200000000000000020000000025
:1000100000000002000000000000000200000000DC
:100020000000000202C10000000000020000000009
:1000300000000002000000000000000200000000BC
:1000400000000002000000000000000200000000AC
:10005000000000020000000000000002000000009C
:10006000000000020000000000000002000000008C
:060070000000000202EF97
:0A0076007591047592027593FC2247
:0700800075A89075E68022CF
:0700870053D9BF75D9002217
:05008E00C298A89922B0
:10009300753508D374006480F8E535648098402290
:1000A300E52F5480F97004C2968002D296C29578E7
:1000B30001E52F088002C333D8FCF52F1535D295FF
:0300C30080D122C7
:0500C600C000C0012292
:0600CB00A298E433F822C4
:1000D10075A43075A5E075D5E075E10175E24022A2
:0400E10075B2822250
:0B00E5001187117611D111E11180226A
:1000F000BD000BB90029E88CF084F8ACF022E4CD07
:10010000FF75F008E828F8E933F9ED33FDE99CEDD7
:100110009F4005FDE99CF908D5F0E9E4C9FC22EC13
:10012000FFF5F0E98420D21CF9ACF075F008E8285E
:10013000F8EC33FC40079F5006D5F0F222C39FFC39
:0501400008D5F0EA22E1
:10014500C297E52D24B0F9E43403FA8501828502CE
:1001550083E493F885002F1193E52E24C9F9E4343F
:1001650003FA850182850283E493F885002F1193B4
:03017500D29722FC
:08017800E493F608A3D9F92273
:10018000E88CF0A4AFF0C88DF0A42FC98CF0A4299E
:02019000F92252
:100192007508FF7509FF750AFF750E8E750F0075DC
:1001A2001000750BCB750C00750D0043E10143E2A5
:0B01B200407588407589207598102268
:0701BD00A80EA90F11C622D4
:1001C4007581801203CD7582BC7583037823790809
:1001D400317811E5538EFC538EF7438E01758D6093
:1001E4003192C3E5309412500241B1752300C3E546
:1001F400239412501B74112523F88601E96444707A
:100204000B852324E5232402F5248004052380DEC2
:10021400852423C3E5239412501574112523F886ED
:1002240001E9642070058523258004052380E47595
:100234002900752A00752701752800C3E525952432
:10024400F5267801C3E52698F526752300C3E52332
:1002540095265014A827A9287C0A7D0031808500A2
:1002640027850128052380E5852423C3E5239525D7
:10027400503274112523F8C3E69430F8E49400F95D
:10028400AC27AD283180E52928F529E52A39F52A56
:100294007C0A7D00A827A92811F08500278501285C
:1002A400052380C7852932852A337530007D037E76
:0D02B4007D7F59DFFEDEFCDDFA21E680FED5
:1002C100C000C0D0C0E0C0F0C082C083741125302E
:1002D100F885002C31BD85002BA82CA62B0530C23A
:0E02E10098D083D082D0F0D0E0D0D0D00032C0
:1002EF00C000C001C004C005C007C0D0C0E0C0F04E
:1002FF00C082C08380547CE87D03A832A93311F0FB
:10030F00850031616F7CE87D03A832A93311F0A815
:10031F0004A9057C647D0011F085003180427C6466
:10032F007D00A832A93311F0A804A9057C0A7D002D
:10033F0011F085003180297C0A7D00A832A9331184
:10034F00F0A804A9058500318016E53460A8E534CE
:10035F00640160B1E534640260C4E534640360D7BE
:10036F00C3E5329440E533949C400A752D0B8534D8
:10037F002E3145800885312D85342E31450534D3F6
:10038F00E5349403400375340053917FD083D082BA
:10039F00D0F0D0E0D0D0D007D005D004D001D0001D
:0103AF00321B
:0E03CD00783079057582C47583031201782299
:0C03B000C0F9A4B0999282F880907FBF41
:0103BC000040
:0103BD00003F
:0103BE00003E
:0103BF00003D
:0203C00001003A
:0203C200000039
:0103C4000038
:0103C5000037
:0203C600000035
:0103C8000034
:0403C900F7FBFDFE43
:00000001FF
