:1000000002020B02000000000000000200000000DD
:1000100000000002000000000000000200000000DC
:1000200000000002000000000000000201AC00001F
:1000300000000002000000000000000200000000BC
:1000400000000002000000000000000200000000AC
:10005000000000020000000000000002000000009C
:10006000000000020000000000000002000000008C
:060070000000000202A6E0
:0400760075B28222BB
:0A007A0075A5E075D5FE75E2402281
:0700840075A8A075E68022BB
:10008B00750C08D374006480F8E50C6480984022EA
:10009B00E50B5480F97004C2968002D296C2957813
:1000AB0001E50B088002C333D8FCF50B150CD29578
:0300BB0080D122CF
:1000BE00BD000BB90029E88CF084F8ACF022E4CD39
:1000CE00FF75F008E828F8E933F9ED33FDE99CED0A
:1000DE009F4005FDE99CF908D5F0E9E4C9FC22EC46
:1000EE00FFF5F0E98420D21CF9ACF075F008E82891
:1000FE00F8EC33FC40079F5006D5F0F222C39FFC6C
:05010E0008D5F0EA2213
:0701130053D9BF75D900228A
:10011A0075CA0275CBFC7591047592027593FC221F
:10012A00C297E509244EF9E43403FA85018285026F
:10013A0083E493F885000B118BE50A2460F9E43413
:10014A0003FA850182850283E493F885000B118BFB
:03015A00D2972217
:08015D00E493F608A3D9F9228E
:10016500C2D5ED30E709B2D5E4C39CFCE49DFDE9B9
:1001750030E715B2D5E4C398F8E499F91200BEC387
:10018500E49CFCE49DFD80031200BE30D507C3E46A
:0601950098F8E499F9223C
:10019B003113311A117A11761184D297D295C296F6
:0101AB002231
:1001AC00C000C0D0C0E0C0F0C082C0837401253153
:1001BC00F53174003532F532D3E53194E7E53294FC
:1001CC0003402C753100753200C3E5339401F533CF
:1001DC00E5349400F534C3E533940074006480F87E
:1001EC00E5346480985008753300753400C2CA53E6
:0F01FC00C87FD083D082D0F0D0E0D0D0D00032F6
:10020B00758180120364750800319B2094147D0363
:10021B007E7D7F59DFFEDEFCDDFA20940280FB75CC
:10022B000801E5086401600241A220932F7D037E43
:10023B007D7F59DFFEDEFCDDFA74012533F5337467
:10024B00003534F534C3E533940F74276480F8E537
:10025B0034648098400675330F7534272092307DB7
:10026B00037E7D7F59DFFEDEFCDDFAC3E5339401AF
:10027B00F533E5349400F534D3E53394007400641E
:10028B0080F8E5346480985006753300753400208F
:0B029B009105D2CA750800411680FED4
:1002A600C000C001C005C007C0D0C0E0C0F0C08219
:1002B600C08380547CE87D03A833A934316585006A
:1002C6003561247CE87D03A833A9343165A804A9E7
:1002D600057C647D00316585003580427C647D0047
:1002E600A833A9343165A804A9057C0A7D003165C7
:1002F60085003580297C0A7D00A833A9343165A89C
:1003060004A9058500358016E53060A8E53064014E
:1003160060B1E530640260C4E530640360D78535BA
:100326000985300A312A0530D3E530940340037538
:10033600300053917FD083D082D0F0D0E0D0D0D09F
:0803460007D005D001D0003200
:0E0364007830790675825A75830312015D2286
:0C034E00C0F9A4B0999282F880907FBFA3
:01035A0000A2
:02035B000000A0
:02035D0000009E
:01035F00009D
:04036000F7FBFDFEAC
:00000001FF
