:100000000201BB0201FA0000000000020000000033
:1000100000000002000000000000000200000000DC
:1000200000000002000000000000000200000000CC
:1000300000000002000000000000000200000000BC
:1000400000000002000000000000000200000000AC
:10005000000000020000000000000002000000009C
:10006000000000020000000000000002000000008C
:060070000000000202770F
:0400760075B28222BB
:07007A0053D9BF75D9002224
:0A00810075A88175B80175E68022AC
:10008B00750B08D374006480F8E50B6480984022EC
:10009B00E50A5480F97004C2968002D296C2957814
:1000AB0001E50A088002C333D8FCF50A150BD2957B
:0300BB0080D122CF
:1000BE00BD000BB90029E88CF084F8ACF022E4CD39
:1000CE00FF75F008E828F8E933F9ED33FDE99CED0A
:1000DE009F4005FDE99CF908D5F0E9E4C9FC22EC46
:1000EE00FFF5F0E98420D21CF9ACF075F008E82891
:1000FE00F8EC33FC40079F5006D5F0F222C39FFC6C
:05010E0008D5F0EA2213
:0D01130075A5E075D40775D5E075E24022B2
:0D0120007588017591047592027593FC229B
:08012D00E493F608A3D9F922BE
:10013500C2D5ED30E709B2D5E4C39CFCE49DFDE9E9
:1001450030E715B2D5E4C398F8E499F91200BEC3B7
:10015500E49CFCE49DFD80031200BE30D507C3E49A
:0601650098F8E499F9226C
:10016B00E5082427F9E43403FA850182850283E448
:10017B0093F885000A118BE509243CF9E43403FA62
:10018B00850182850283E493F885000A118BC2975F
:03019B00D29722D6
:10019E00E88CF0A4AFF0C88DF0A42FC98CF0A42980
:0201AE00F92234
:0B01B000117A312031131176118122E9
:1001BB0075818012034031B02082307D047EBB7F7D
:1001CB0087DFFEDEFCDDFA20820280FBA833A93438
:1001DB007C0A7D00319E850033850134D3E894E899
:0F01EB00E99403400675330175340080CB80FE24
:1001FA00C000C0D0C0E0C0F0C082C083A281E43396
:10020A00F530A280E433F538E53065356024E53809
:10021A006530600FC3E5369533F536E5379534F525
:10022A0037800CE5362533F536E5373534F537852D
:10023A003035D3E536940F74276480F8E537648047
:10024A00984006753600753700C3E5369400740089
:10025A006480F8E537648098500675360F7537273D
:0D026A00D083D082D0F0D0E0D0D0D00032D0
:10027700C000C001C002C004C005C007C0D0C0E0B4
:10028700C0F0C082C08380547CE87D03A836A937BC
:10029700313585003241F97CE87D03A836A937312D
:1002A70035A804A9057C647D00313585003280427C
:1002B7007C647D00A836A9373135A804A9057C0AD6
:1002C7007D00313585003280297C0A7D00A836A95A
:1002D700373135A804A9058500328016E53160A8B5
:1002E700E531640160B1E531640260C4E53164035E
:1002F70060D7853208853109316B0531D3E53194F3
:1003070003400375310053917FD083D082D0F0D062
:10031700E0D0D0D007D005D004D002D001D0003231
:0E0340007830790975823375830312012D22FE
:0C032700C0F9A4B0999282F880907FBFCA
:0103330000C9
:0103340000C8
:0103350000C7
:020336000100C4
:0103380000C4
:020339000000C2
:01033B0000C1
:04033C00F7FBFDFED0
:00000001FF
