:10000000020CED02000000000000000200000000F1
:1000100000000002000000000000000200000000DC
:1000200000000002000000000000000200000000CC
:1000300000000002000000000000000200000000BC
:1000400000000002000000000000000200000000AC
:100050000000000200000000000000020C6400002C
:10006000000000020000000000000002000000008C
:0600700000000002000088
:070076007F03DFFE00002202
:10007D00755C01755D00755E80755F00E55E455FC1
:10008D00604E1176117611761176C2971176117632
:10009D00E55B555EF8E4555FF9E8496004D296805A
:1000AD0002C29611761176D297C3E50892E0F50853
:1000BD00209709E50830E002800280F47801E55FC1
:1000CD00088007C313C55E13C55ED8F7F55F80AC16
:1000DD00755C00755D0011761176C29711761176FB
:1000ED00D2961176117611761176D297C3E50892D4
:1000FD00E0F508209709E50830E002800280F475EC
:10010D005C00755D0011761176309606435C0143F7
:10011D005D001176117611761176117611761176C4
:10012D00117611761176117611761176117611768A
:0B013D001176C297C296A85CA95D2253
:10014800C29611761176D297C3E50892E0F5082099
:100158009709E50830E002800280F41176117611E3
:100168007611761176117611761176D2961176116E
:020178007622ED
:10017A00D29611761176D29711761176C2961176A9
:05018A001176C297226E
:10018F00317A85585B117D85595B117D855A5B11DD
:04019F007D31482244
:0C01A30075587C85575985565A318F22BB
:1001AF00C3E5549420400FD3E554947F50088554F1
:0701BF005675574031A322E1
:1001C600BD000BB90029E88CF084F8ACF022E4CD30
:1001D600FF75F008E828F8E933F9ED33FDE99CED01
:1001E6009F4005FDE99CF908D5F0E9E4C9FC22EC3D
:1001F600FFF5F0E98420D21CF9ACF075F008E82888
:10020600F8EC33FC40079F5006D5F0F222C39FFC62
:0502160008D5F0EA220A
:0C021B007558C085545985555A318F2202
:10022700803C75F008758200E828F8E933F9CA338D
:10023700CACB33CBC58233C5829CEA9DEB9EE58250
:100247009F400CF582E99CF9EA9DFAEB9EFB08D5E5
:10025700F0D6E4C9FCE4CAFDE4CBFEAF8222EF602E
:100267000280BFEE6002805BED6002802DEB8CF0B8
:1002770084C8C9CAFBE5F0CCFE7F18E828F8E93343
:10028700F9EA33FAEB33FBEC33FC10D7039E400457
:10029700EC9EFC08DFE5E4FEFD227F18E828F8E97C
:1002A70033F9EA33FAEB33FBCE33CE10D7059CEEA6
:1002B7009D4007EB9CFBEE9DFE08DFE0E4CEFDE4EE
:1002C700CBFC2275F010E828F8E933F9EA33FACBCA
:1002D70033CBCF33CF10D7079CEB9DEF9E400AEA75
:1002E7009CFAEB9DFBEF9EFF08D5F0DAE4CAFCE42D
:0602F700CBFDE4CFFE2266
:0D02FD0075D84053D9BF75D90175DA1122AB
:04030A0075D108227F
:07030E0075A88075E61022BE
:10031500C2D5ED30E709B2D5E4C39CFCE49DFDE907
:1003250030E715B2D5E4C398F8E499F91201C6C3CC
:10033500E49CFCE49DFD80031201C630D507C3E4AF
:0603450098F8E499F9228A
:10034B00C2D5EF30E70FB2D5E4C39CFCE49DFDE4CE
:10035B009EFEE49FFFEB30E717B2D512038112022A
:10036B0027E4C39CFCE49DFDE49EFEE49FFF800319
:10037B0012022730D50DE4C398F8E499F9E49AFA00
:05038B00E49BFB2222AF
:10039000A82F865431AF052FA82F8601E970F122CE
:1003A000E552700543518080034351C075587C75F8
:0803B000598085515A318F225A
:1003B80075560175578031A375560275578031A35C
:0A03C8007E207FD0DFFEDEFC002265
:1003D200D296D297C3E50892E0F508209709E5087E
:0803E20030E002800280F422E9
:1003EA00755404855155511B755403855255511B3B
:0903FA00755402855355511B2274
:0A04030075A5F075D5F075E24122F1
:04040D0075B2822220
:100411003392D530D50312043CEB334010E833F866
:10042100E933F9EA33FAEB33FBD5F0ED22E5F024B9
:100431007EA2D513CB92E7CAC9F822C3E498F8E4A7
:0904410099F9E49AFAE49BFB220C
:10044A0071D27D027E3F7F2BDFFEDEFCDDFA755620
:10045A002875578031A37E507F8ADFFEDEFC007547
:10046A00562875578031A37E507F8ADFFEDEFC0056
:10047A0075562875578031A37E507F8ADFFEDEFCD1
:10048A000075562875578031A375560C75578031FB
:10049A00A371B875560675578031A3755400755502
:1004AA0000511B7554087555FF511B75540175553C
:0F04BA0020511B75517F75527F75537F71EA2258
:0804C900E493F608A3D9F9221F
:1004D100754A20754B20754C20754D20754E207541
:1004E1004F20755000C3E5289400E5299400E52AC2
:1004F100940074006480F8E52B648098501E754A5E
:100501002DC374009528F52874009529F5297400E8
:10051100952AF52A7400952BF52B8003754A20D373
:10052100E528940FE5299427E52A94007400648056
:10053100F8E52B6480985002A1F77C107D277E009E
:10054100750700A828A929AA2AAB2B714B7430285A
:10055100F54B7C107D277E00750700A828A929AAE4
:100561002AAB2B714BA804A905AA06AB077CE87D31
:10057100037E00750700714B743028F54C7CE87DD3
:10058100037E00750700A828A929AA2AAB2B714B65
:10059100A804A905AA06AB077C647D007E00750747
:1005A10000714B743028F54D7C647D007E00750729
:1005B10000A828A929AA2AAB2B714BA804A905AA2E
:1005C10006AB077C0A7D007E00750700714B743015
:1005D10028F54E7C0A7D007E00750700A828A92910
:1005E100AA2AAB2B714BA804A905AA06AB07743044
:1005F10028F54F020842D3E52894E7E5299403E55D
:100601002A940074006480F8E52B6480985002C13C
:10061100D4D3E528940FE5299427E52A94007400A2
:100621006480F8E52B6480984002C1D47C107D275A
:100631007E00750700A828A929AA2AAB2B714BA80F
:1006410004A905AA06AB077CE87D037E00750700B7
:10065100714B743028F54B7CE87D037E00750700F3
:10066100A828A929AA2AAB2B714BA804A905AA0677
:10067100AB077C647D007E00750700714B743028E8
:10068100F54C7C647D007E00750700A828A929AA85
:100691002AAB2B714BA804A905AA06AB077C0A7DDE
:1006A100007E00750700714B743028F54D7C0A7D82
:1006B100007E00750700A828A929AA2AAB2B714B37
:1006C100A804A905AA06AB07743028F54E754F207A
:1006D100020842D3E5289463E5299400E52A9400B1
:1006E10074006480F8E52B6480985002E189D3E5B9
:1006F1002894E7E5299403E52A940074006480F8BE
:10070100E52B6480984002E1897CE87D037E0075D9
:100711000700A828A929AA2AAB2B714BA804A9056F
:10072100AA06AB077C647D007E00750700714B74DF
:100731003028F54B7C647D007E00750700A828A950
:1007410029AA2AAB2B714BA804A905AA06AB077CE1
:100751000A7D007E00750700714B743028F54C7CD2
:100761000A7D007E00750700A828A929AA2AAB2BBB
:10077100714BA804A905AA06AB07743028F54D757D
:100781004E20754F20020842D3E5289409E52994AB
:1007910000E52A940074006480F8E52B6480985089
:1007A10003020815D3E5289463E5299400E52A940A
:1007B1000074006480F8E52B64809850577C647D58
:1007C100007E00750700A828A929AA2AAB2B714B26
:1007D100A804A905AA06AB077C0A7D007E0075075F
:1007E10000714B743028F54B7C0A7D007E00750743
:1007F10000A828A929AA2AAB2B12034BA804A905F2
:10080100AA06AB07743028F54C754D20754E20753E
:100811004F20802D7C0A7D007E00750700A828A945
:1008210029AA2AAB2B12034BA804A905AA06AB07D8
:10083100743028F54B754C20754D20754E20754F41
:10084100208526518527521203A0752F4A12039045
:010851002284
:1008520075600075610075620075630085FC6185D5
:10086200FB60856162E4F563A962780085006285B8
:100872000163E5604200E442018500628501632272
:10088200752A20752B20752C20752D20752E00C3FE
:10089200E528940074006480F8E529648098501279
:1008A200752A2DC374009528F52874009529F52919
:1008B2008003752A20D3E528946374006480F8E5E8
:1008C200296480984052D3E52894E774036480F841
:1008D200E52964809850417C647D00A828A92912EA
:1008E2000315743028F52B7C647D00A828A92912F1
:1008F2000315A804A9057C0A7D001203157430288B
:10090200F52C7C0A7D00A828A929120315A804A9A0
:1009120005743028F52D21ACD3E5289409740064C0
:1009220080F8E5296480984045D3E52894637400F3
:100932006480F8E52964809850347C647D00A8289E
:10094200A929120315A804A9057C0A7D0012031522
:10095200743028F52B7C0A7D00A828A929120315DA
:10096200A804A905743028F52C752D20803CC3E518
:1009720028940074006480F8E529648098402BD3A1
:10098200E528940974006480F8E529648098501A77
:100992007C0A7D00A828A929120315A804A90574B8
:1009A2003028F52B752C20752D2085265185275250
:0A09B2001203A0752F2A12039022F1
:1009BC001202FD12030A12040312040D12030E227A
:1009CC00EC600FE8C333F8E933F9EA33FAEB33FBA5
:0309DC00DCF12229
:1009DF00EB4A6011EF4E7017EA33EB3304600DE40E
:1009EF00FBF8F9FA22EE33EF330470F8020B18120A
:1009FF000AE35F046009E4CB248150062F500902FB
:100A0F000B222F4003020B1FC0E0EC4D7044BE8041
:100A1F0006D0E0FC020B0EE849701CBA8008ECF817
:100A2F00EDF9EEFA80EBEE8AF0A4F9E5F0020AC8D0
:100A3F00EECAFEEDF9ECF8E88EF0A4FBE5F0C98EF6
:100A4F00F0A429F8E435F0CA8EF0A42AF9E435F0C1
:100A5F008067E8497005BA80D780C3E88CF0A4ABF3
:100A6F00F0E98CF0A42BFBE435F0FFE88DF0A42B1C
:100A7F00E5F03FFBE433CC8AF0A42BFBE5F03CFF21
:100A8F00E98DF0A42BFBE5F03FFFE433C88EF0A413
:100A9F002BFBE5F03FC83400C98EF0A428F8E5F031
:100AAF0039F9E433CE8AF0A429F9E5F03ECA8DF086
:100ABF00A428F8E5F039F9E43AFA33D0E0FC50060F
:100ACF000CBC000E804DEB2BFBE833F8E933F9EA51
:100ADF0033FA8017EED2E7CE33EF33FF92D5EAD257
:100AEF00E7CA33EB33FB5002B2D522EB30E71008E5
:100AFF00B8000C09B900080ABA00040CEC6014A283
:100B0F00D5EC13FBEA92E7FA2274FFFBFAF9F8220D
:0F0B1F00E480F8A2D574FF13FB7A80E480EF2204
:080B2E0075F020E4120411220D
:100B36008003020C16EB5A046005EF5E0470030294
:100B46000C0C120BD75F0460F6EB4F60F2EB7004EF
:100B5600FAF9F822CF60DB2481CF5009C39F6002E7
:100B66005006020C139F50CAF582EE2E4C4D7005AE
:100B7600AC82020C0275F0007B1A7F80C3E89CE908
:100B86009DEA9E400DC3E89CF8E99DF9EA9EFAEFBE
:100B960042F0DB22ABF0D0E0F8D0E0F9D0E0FAACDE
:100BA6008220E7101CEC60BAEB2BFBE833F8E93344
:100BB600F9EA33FA8032EF03FF30E705C0F075F04B
:100BC60000E828F8E933F9EA33FA40B930E7C38098
:100BD600ABEED2E7CE33EF33FF92D5EAD2E7CA3394
:100BE600EB33FB5002B2D522EB30E71008B8000C0D
:100BF60009B900080ABA00040CEC60ECA2D5EC13A3
:100C0600FBEA92E7FA2274FFFBFAF9F822E480F88D
:0C0C1600A2D574FF13FB7A80E480EF226B
:100C2200EAD2E7CA33EB3392D524814006E4F8F9DD
:100C3200FAFB22FBE4C8C9CACB24E0501174FF803E
:100C4200EDC3CB13CBCA13CAC913C9C813C80470E6
:100C5200F030D5DEC3E498F8E499F9E49AFAE49B1B
:020C6200FB2273
:100C6400C000C001C002C003C004C005C0D0C0E0C1
:100C7400C0F0C082C08330DF0E74012538F53874AB
:100C8400003539F539C2DF30D84811528500368530
:100C94000137AD39E53805108005C333CD33CDD5E3
:100CA40010F8FCC3E89530FAE99531FBEC2AFAED2B
:100CB4003BFB850232850333E4F534E4F5358500E6
:100CC4003085013175380075390075360075370087
:100CD400C2D8D083D082D0F0D0E0D0D0D005D00418
:090CE400D003D002D001D000328F
:100CED00758180120F6075824B75830F78097915A8
:100CFD001204C931BC12044A1203B8755100755261
:100D0D00001203A0752F3A1203908018C294C29559
:100D1D008028C294D2958022D294C295801CD29400
:100D2D00D2958016E51D60E4E51D640160E4E51DC6
:100D3D00640260E4E51D640360E47D077E377FE2B5
:100D4D00DFFEDEFCDDFA00A832A933AA34AB357123
:100D5D002EAC00AD01AE02AF037810793A7A797BF3
:100D6D00497136912285000985010A85020B85039B
:100D7D000C803885090D850A0E850B0F850C1080AA
:100D8D0040850915850A16850B17850C1880328547
:100D9D000919850A1A850B1B850C1C8024850911E0
:100DAD00850A12850B13850C148016E51D60C4E5AC
:100DBD001D640160CCE51D640260D4E51D64036013
:100DCD00DC051DD3E51D94035002E12DA80DA90EE0
:100DDD00AA0FAB10712E8500228501238502248573
:100DED000325A819A91AAA1BAB1C712E85001E85F7
:100DFD00011F850220850321AC1EAD1FAE20AF2142
:100E0D00A822A923AA24AB2571367C007D007EC8BB
:100E1D0075074231DF912285000D85010E85020F88
:100E2D00850310A811A912AA13AB14712EAC1EAD17
:100E3D001FAE20AF2171367C007D007EC875074244
:100E4D0031DF91228500118501128502138503146E
:100E5D00A815A916AA17AB18712EAC1EAD1FAE2082
:100E6D00AF2171367C007D007EC875074231DF9160
:100E7D002285001585011685021785031875260034
:100E8D00752701850D28850E291182752604752774
:100E9D00018511288512291182752608752701856E
:100EAD001528851629118275260C75270185192897
:100EBD00851A29851B2A851C2B1204D17C01A80DAE
:100ECD00A90EAA0FAB1031CC85000D85010E850240
:100EDD000F8503107C01A811A912AA13AB1431CCF4
:100EED008500118501128502138503147C01A81557
:100EFD00A916AA17AB1831CC8500158501168502E8
:100F0D0017850318850D518511528500531203EA7B
:100F1D00751D007D197EDC7F90DFFEDEFCDDFA00A5
:040F2D00A11780FE8A
:0E0F60007830791A75823175830F1204C92218
:020F31000000BE
:040F330000000000BA
:020F37000000B8
:020F39000000B6
:100F3B0020522520204725202042252020664300D3
:040F4B0000000000A2
:040F4F00000000009E
:040F5300000000009A
:040F57000000000096
:040F5B000000000092
:010F5F000091
:00000001FF
