:100000000206AC0200000000000000020000000038
:1000100000000002000000000000000200000000DC
:1000200000000002000000000000000200000000CC
:1000300000000002000000000000000200000000BC
:1000400000000002000000000000000200000000AC
:10005000000000020000000000000002000000009C
:10006000000000020000000000000002000000008C
:060070000000000206CEB4
:0D007600C2FF8516A320FF0280FBA8A32275
:05008300C000C00122D5
:0B008800C2FF8516A320FF0280FB22B0
:0C009300A80DA61508A80BA90C118322CB
:0C009F00A80AA61508A808A909118322C8
:1000AB00C283E514547FF515119F7515001193D27A
:0200BB0083229E
:1000BD0075110075120075130085101411AB8500B4
:1000CD0011E5102401F51411AB851112E4F513ABF4
:1000DD00127A00850212850313EA4200EB42018574
:0600ED0000128501132240
:1000F300800302021AEE33EF3360110460F4EA3333
:10010300EB337009EFFBEEFAEDF9ECF8220460E251
:10011300D3EC98ED99EE9AEFC2E78BF0C2F795F026
:10012300400CEFCBFFEECAFEEDC9FDECC8FC12019B
:10013300E585D0F05F04700320D5B7EF0470075056
:1001430002B2D502022492D5EB0460F7E4CBC0E0FF
:10015300C39FFF603B94186008400DD0E0FC020190
:10016300FCE4FCFDCEFB8028EF30E406E4CEFCE4A7
:10017300CDFBEF30E305E4CECDCCFBEF54076010AD
:10018300FFC3EE13FEED13FDEC13FCEB13FBDFF1EA
:1001930030F52DC3E49BFBE89CF8E99DF9EA9EFA50
:1001A300D0E0FCE8494A4B701122DC028070EB2B53
:1001B300FBE833F8E933F9EA33FAEA30E7EC80395C
:1001C300E82CF8E93DF9EA3EFAD0E0FC50120CBC09
:1001D3000002804DEA13FAE913F9E813F8EB13FB75
:1001E3008017EED2E7CE33EF33FF92D5EAD2E7CAD8
:1001F30033EB33FB5002B2D522EB30E71008B800E3
:100203000C09B900080ABA00040CEC6014A2D5EC7E
:1002130013FBEA92E7FA2274FFFBFAF9F822E4806F
:0D022300F8A2D574FF13FB7A80E480EF226F
:100230003392D530D50312025BEB334010E833F82C
:10024000E933F9EA33FAEB33FBD5F0ED22E5F0249C
:100250007EA2D513CB92E7CAC9F822C3E498F8E48A
:0902600099F9E49AFAE49BFB22EF
:10026900C283E50E4480F515119F850F15119FD2A4
:020279008322DE
:10027B00EAD2E7CA33EB3392D524814006E4F8F98E
:10028B00FAFB22FBE4C8C9CACB24E0501174FF80EF
:10029B00EDC3CB13CBCA13CAC913C9C813C8047097
:1002AB00F030D5DEC3E498F8E499F9E49AFAE49BCC
:0202BB00FB2224
:1002BD00800302039DEB5A046005EF5E0470030298
:1002CD00039312035E5F0460F6EB4F60F2EB700474
:1002DD00FAF9F822CF60DB2481CF5009C39F600269
:1002ED00500602039A9F50CAF582EE2E4C4D7005B2
:1002FD00AC8202038975F0007B1A7F80C3E89CE90C
:10030D009DEA9E400DC3E89CF8E99DF9EA9EFAEF3F
:10031D0042F0DB22ABF0D0E0F8D0E0F9D0E0FAAC5F
:10032D008220E7101CEC60BAEB2BFBE833F8E933C5
:10033D00F9EA33FA8032EF03FF30E705C0F075F0CC
:10034D0000E828F8E933F9EA33FA40B930E7C38019
:10035D00ABEED2E7CE33EF33FF92D5EAD2E7CA3315
:10036D00EB33FB5002B2D522EB30E71008B8000C8E
:10037D0009B900080ABA00040CEC60ECA2D5EC1324
:10038D00FBEA92E7FA2274FFFBFAF9F822E480F80F
:0C039D00A2D574FF13FB7A80E480EF22ED
:1003A900751A08D374006480F8E51A6480984022AD
:1003B900E5195480F97004C2968002D296C29578E4
:1003C90001E519088002C333D8FCF519151AD2952D
:0303D90080D122AE
:1003DC00EB4A6011EF4E7017EA33EB3304600DE417
:1003EC00FBF8F9FA22EE33EF330470F8020515121C
:1003FC0004E05F046009E4CB248150062F5009020D
:10040C00051F2F400302051CC0E0EC4D7044BE805C
:10041C0006D0E0FC02050BE849701CBA8008ECF829
:10042C00EDF9EEFA80EBEE8AF0A4F9E5F00204C5E2
:10043C00EECAFEEDF9ECF8E88EF0A4FBE5F0C98EFF
:10044C00F0A429F8E435F0CA8EF0A42AF9E435F0CA
:10045C008067E8497005BA80D780C3E88CF0A4ABFC
:10046C00F0E98CF0A42BFBE435F0FFE88DF0A42B25
:10047C00E5F03FFBE433CC8AF0A42BFBE5F03CFF2A
:10048C00E98DF0A42BFBE5F03FFFE433C88EF0A41C
:10049C002BFBE5F03FC83400C98EF0A428F8E5F03A
:1004AC0039F9E433CE8AF0A429F9E5F03ECA8DF08F
:1004BC00A428F8E5F039F9E43AFA33D0E0FC500618
:1004CC000CBC000E804DEB2BFBE833F8E933F9EA5A
:1004DC0033FA8017EED2E7CE33EF33FF92D5EAD260
:1004EC00E7CA33EB33FB5002B2D522EB30E71008EE
:1004FC00B8000C09B900080ABA00040CEC6014A28C
:10050C00D5EC13FBEA92E7FA2274FFFBFAF9F82216
:0F051C00E480F8A2D574FF13FB7A80E480EF220D
:0F052B00AB01AA007900780075F010EB51302277
:10053A0075A40D75A5E075D40875D5E075E1027549
:03054A00E240226A
:0A054D007591047592027593FC226B
:0A05570075A14075F80175A2052298
:0705610053D9BF75D9002238
:0405680075B28222C4
:08056C00EF6480FF1200F3228E
:1005740075100111BD7C01E9AA000C8005C313CAE2
:0A05840013CADCF9FBA802A9032248
:10058E00750B76750C00750D167508887509007556
:0F059E000A1643E10243E240850EA175F80322DD
:0705AD0075A88075E68022AD
:0805B400E493F608A3D9F92233
:1005BC00BD000BB90029E88CF084F8ACF022E4CD36
:1005CC00FF75F008E828F8E933F9ED33FDE99CED07
:1005DC009F4005FDE99CF908D5F0E9E4C9FC22EC43
:1005EC00FFF5F0E98420D21CF9ACF075F008E8288E
:1005FC00F8EC33FC40079F5006D5F0F222C39FFC69
:05060C0008D5F0EA2210
:10061100C297E5172456F9E43407FA850182850269
:1006210083E493F885001971A9E5182466F9E43487
:1006310007FA850182850283E493F885001971A97F
:03064100D297222B
:10064400B174B12B7C007D007ED775074371DC7CCF
:10065400007D007E0075074751BD7C007D007EC88B
:1006640075074251BD7C007D007E8075073FB16CEB
:0E0674007CEF7D0E7E8075073B51BD517B22D1
:1006820075A205750E60B18E7EA07F15DFFEDEFCC1
:0D0692000000D283750E00750FD351692250
:0D069F00B161B14DB157B13AB168B1AD22B2
:1006AC0075818012076AD19FD182D1448500328531
:1006BC0001337D267E4A7F59DFFEDEFCDDFA80EABF
:0206CC0080FEAE
:1006CE00C000C001C002C004C005C007C0D0C0E059
:1006DE00C0F0C082C083802C7C0A7D00A832A93372
:1006EE00B1BC85003180337C0A7D00A832A933B1BC
:1006FE00BCA804A905850031802075310A801B75C0
:10070E00310B8016E53060D0E530640160D9E530FC
:10071E00640260E6E530640360E5853117853018C4
:10072E00D1110530D3E53094034003753000539159
:10073E007FD083D082D0F0D0E0D0D0D007D005D0FB
:08074E0004D002D001D00032FA
:0E076A00783079047582627583071205B42217
:0C075600C0F9A4B0999282F880909CC673
:010762000096
:010763000095
:02076400000093
:04076600F7FBFDFEA2
:00000001FF
